:020000040000fa
:080000000002040000000000f2
:020000040000fa
:0400080006050000e9
:020000040000fa
:04000c0006050000e5
:020000040000fa
:0400100006050000e1
:020000040000fa
:0400140006050000dd
:020000040000fa
:0400180006050000d9
:020000040000fa
:04001c0006050000d5
:020000040000fa
:0400200006050000d1
:020000040000fa
:0400240006050000cd
:020000040000fa
:0400280006050000c9
:020000040000fa
:04002c0006050000c5
:020000040000fa
:0400300006050000c1
:020000040000fa
:0400340006050000bd
:020000040000fa
:0400380006050000b9
:020000040000fa
:04003c0006050000b5
:020000040000fa
:0400400006050000b1
:020000040000fa
:0400440006050000ad
:020000040000fa
:0400480006050000a9
:020000040000fa
:04004c0006050000a5
:020000040000fa
:04005000c8020000e2
:020000040000fa
:04005400060500009d
:020000040000fa
:040058000605000099
:020000040000fa
:04005c000605000095
:020000040000fa
:040060000605000091
:020000040000fa
:04006400060500008d
:020000040000fa
:040068000605000089
:020000040000fa
:04006c000605000085
:020000040000fa
:040070000605000081
:020000040000fa
:04007400060500007d
:020000040000fa
:040078000605000079
:020000040000fa
:04007c000605000075
:020000040000fa
:040080000605000071
:020000040000fa
:04008400060500006d
:020000040000fa
:040088000605000069
:020000040000fa
:04008c000605000065
:020000040000fa
:040090000605000061
:020000040000fa
:040094001c04000048
:020000040000fa
:040098000605000059
:020000040000fa
:04009c000605000055
:020000040000fa
:0400a0000605000051
:020000040000fa
:0400a400060500004d
:020000040000fa
:0400a8000605000049
:020000040000fa
:0400ac000605000045
:020000040000fa
:0400b0000605000041
:020000040000fa
:0400b400060500003d
:020000040000fa
:0400b8000605000039
:020000040000fa
:0400bc000605000035
:020000040000fa
:0400c0000605000031
:020000040000fa
:0400c400060500002d
:020000040000fa
:0400c8000605000029
:020000040000fa
:0400cc000605000025
:020000040000fa
:0400d0000605000021
:020000040000fa
:0400d400060500001d
:020000040000fa
:0400d8000605000019
:020000040000fa
:0400dc000605000015
:020000040000fa
:0400e0000605000011
:020000040000fa
:0400e400060500000d
:020000040000fa
:0400e8000605000009
:020000040000fa
:0400ec000605000005
:020000040000fa
:0400f0000605000001
:020000040000fa
:0400f40006050000fd
:020000040000fa
:0400f80006050000f9
:020000040000fa
:0400fc0006050000f5
:020000040000fa
:0401000006050000f0
:020000040000fa
:0401040006050000ec
:020000040000fa
:0401080006050000e8
:020000040000fa
:04010c0006050000e4
:020000040000fa
:0401100006050000e0
:020000040000fa
:0401140006050000dc
:020000040000fa
:040118006604000079
:020000040000fa
:04011c0006050000d4
:020000040000fa
:0401200006050000d0
:020000040000fa
:0401240006050000cc
:020000040000fa
:0401280006050000c8
:020000040000fa
:04012c0006050000c4
:020000040000fa
:0401300006050000c0
:020000040000fa
:0401340006050000bc
:020000040000fa
:0401380006050000b8
:020000040000fa
:04013c0006050000b4
:020000040000fa
:0401400006050000b0
:020000040000fa
:0402080006050000e7
:020000040000fa
:04020c0006050000e3
:020000040000fa
:0402100006050000df
:020000040000fa
:0402140006050000db
:020000040000fa
:0402180006050000d7
:020000040000fa
:04021c0006050000d3
:020000040000fa
:0402200006050000cf
:020000040000fa
:0402240006050000cb
:020000040000fa
:0402280006050000c7
:020000040000fa
:04022c0006050000c3
:020000040000fa
:0402300006050000bf
:020000040000fa
:0402340006050000bb
:020000040000fa
:0402380006050000b7
:020000040000fa
:04023c0006050000b3
:020000040000fa
:0402400006050000af
:020000040000fa
:0402440006050000ab
:020000040000fa
:0402480006050000a7
:020000040000fa
:04024c0006050000a3
:020000040000fa
:04025000060500009f
:020000040000fa
:04025400060500009b
:020000040000fa
:040258000605000097
:020000040000fa
:04025c000605000093
:020000040000fa
:04026000060500008f
:020000040000fa
:04026400060500008b
:020000040000fa
:040268000605000087
:020000040000fa
:04026c000605000083
:020000040000fa
:04027000060500007f
:020000040000fa
:04027400060500007b
:020000040000fa
:040278000605000077
:020000040000fa
:04027c000605000073
:020000040000fa
:04028000060500006f
:020000040000fa
:04028400060500006b
:020000040000fa
:040288000605000067
:020000040000fa
:04028c000605000063
:020000040000fa
:04029000060500005f
:020000040000fa
:04029400060500005b
:020000040000fa
:040298000605000057
:020000040000fa
:04029c000605000053
:020000040000fa
:0402a000060500004f
:020000040000fa
:0402a400060500004b
:020000040000fa
:0402a8000605000047
:020000040000fa
:0402ac000605000043
:020000040000fa
:0402b000060500003f
:020000040000fa
:0402b400060500003b
:020000040000fa
:0402b8000605000037
:020000040000fa
:0402bc000605000033
:020000040000fa
:0402c000060500002f
:020000040000fa
:0402c400060500002b
:020000040000fa
:0402c8000605000027
:020000040000fa
:0402cc000605000023
:020000040000fa
:0402d000060500001f
:020000040000fa
:0402d400060500001b
:020000040000fa
:0402d8000605000017
:020000040000fa
:0402dc000605000013
:020000040000fa
:0402e000060500000f
:020000040000fa
:0402e400060500000b
:020000040000fa
:0402e8000605000007
:020000040000fa
:0402ec000605000003
:020000040000fa
:0402f00006050000ff
:020000040000fa
:0402f40006050000fb
:020000040000fa
:0402f80006050000f7
:020000040000fa
:0402fc0006050000f3
:020000040000fa
:0403000006050000ee
:020000040000fa
:0403040006050000ea
:020000040000fa
:0403080006050000e6
:020000040000fa
:04030c0006050000e2
:020000040000fa
:0403100006050000de
:020000040000fa
:0403140006050000da
:020000040000fa
:0403180006050000d6
:020000040000fa
:04031c0006050000d2
:020000040000fa
:0403200006050000ce
:020000040000fa
:0403240006050000ca
:020000040000fa
:0403280006050000c6
:020000040000fa
:04032c0006050000c2
:020000040000fa
:0403300006050000be
:020000040000fa
:0403340006050000ba
:020000040000fa
:0403380006050000b6
:020000040000fa
:04033c0006050000b2
:020000040000fa
:0403400006050000ae
:020000040000fa
:100400006ff420000e7f24000e0188000000000021
:10041000000020000000e000020032000001200087
:1004200020028800140007007a0107000000e000a5
:1004300003003a00c038210001002000020037000c
:100440000000200001002000810f70000100320038
:1004500014000700000020000000e000020032004d
:100460000000020000000000960f020000000000e3
:100470000040da000000fe004440a9000000200017
:100480000000e0000300320000002000a00188000e
:100490004440a800000006008a1f78008b1f7800e7
:1004a0000000060091018800800478000000eb0045
:1004b0001a003700e284440032a0b4009905ba0063
:1004c000e284440032a0b4009906ba00e2844400f9
:1004d00032a0b4000006eb00476fde00fd07b2005b
:1004e000636ce10003003a00ebff07000000eb0043
:1004f0000a003700606ce10004003a00005deb0088
:100500008b05e900fdff3e00040037006168e10053
:10051000010032000086eb000b00070019c7ba008b
:100520001905ba000e04e00003003a000a00e000da
:10053000e0ff3a0000000600fe07b2009e018800be
:100540008a047800f5ff3700395dba008b05e900b1
:100550000c003200295dba008b05e900080032006a
:100560000c00e00003003a00e284440032a0b40032
:10057000f5ff370019ddba008b05e900faff3a00f4
:100580008904e800e184440032a0b40000000600c1
:10059000809fbe00829fbe000200fa008540a90035
:1005a000f0408000a0009000000220000080600069
:1005b0000000e0006d003200f04080004112800039
:1005c00011009800f040800020009000670f60004c
:1005d0001e007800e30f50002b003200e30f5000a4
:1005e00007003c00e10f500015003200e10f500001
:1005f0001c003c000000e000080032008a003700c8
:10060000e50f500034003200e50f50002e00350099
:10061000e60f50004100320083003700f0408000b8
:10062000604890000000fb0040128800f04080000d
:10063000a00090008100e800210098007a003700b7
:10064000f0408000504890000000fb0040128800fd
:10065000f0408000a00090008100e8002100980098
:1006600071003700f0408000404890000000fb001f
:1006700040128800f0408000a00090008100e80057
:100680002100980068003700f04080009001780059
:10069000f0408000c000900001017800028141001c
:1006a000124178000201fb00421288008100e8003c
:1006b00041009800f0408000a00090008100e80018
:1006c0002100980058003700ca42a8001421ef000a
:1006d0001fe1a80054003700f0408000900178002e
:1006e000f0408000c00090000101780002814100cc
:1006f000124178000201fb00421288008100e800ec
:1007000041009800f0408000a00090008100e900c6
:10071000210098000000000043003700ca42a800f2
:10072000f04080008000eb0031009800f040800035
:100730008000eb0041009800f0408000f140800014
:100740002101900081ff2f008100610021009800ad
:10075000f0408000f140800021019000f1fd2f0069
:1007600081006100210098002f003700f0408000d8
:1007700020009000700060000000e00022003200c5
:10078000f0408000d0009000f040800040009000d9
:1007900000804000411280008140780001487800cc
:1007a000f0408000c00090008100e8004100980007
:1007b000f0408000c0009000f040800030009000c9
:1007c000808f500002003d004822ef0016003700e5
:1007d000f0408000f140800021019000f1fe2f00e8
:1007e0008100610021009800f04080008000eb0053
:1007f00031009800f04080008000eb00410098003c
:10080000ca42a80008003700f0408000f140800094
:10081000a10090000130a00021009800f04080006d
:1008200041128000110098000080fa004f01be00c4
:100830004f00be0000400600809fbe00821f78006f
:100840000000fa008760a9001fe1a900f0408000c5
:10085000c0009000f040800030009000808f500079
:100860000f003500ca42a900400020004012880055
:10087000f0408000f14080002101900081ff2f00b6
:100880008100610021009800f0408000f14080006c
:10089000a1009000e680400021009800070037008a
:1008a000ca42a900f00a200040128800f0408000ef
:1008b000a00090008100e800210098000080fa006c
:1008c0004f0178004f00be0000400600809fbe0030
:1008d000821f78000000fa008b80a9000041800090
:1008e000f0009000004180004000900000004000b7
:1008f00000804000811480000108780000418000e1
:1009000080089000004180004000900000004000fe
:100910000080400010007800c01488000041800072
:10092000c00090008100e800410098000041800074
:10093000c00090000041800050009000808f500067
:100940002e003a0000418000014180009108900093
:100950000120a200110898000041800010089000ba
:10096000640060000000e0000900320000418000e7
:1009700001418000910090007100980000418000ca
:1009800001418000b1009000010898000800370084
:1009900000418000014180009100780071009800c2
:1009a0000041800001418000a100900001089800f2
:1009b000004180008000eb00410098000041800071
:1009c00001418000e100900051009800004180004a
:1009d0000141800011099000e1ff2f0081006100ba
:1009e0001108980000418000014180001109900029
:1009f000d1ff2f0081006100110898000080fa00eb
:100a00004f0178004f00be00004006000040da00b1
:080a10000000fe0000000500db
:020000040000fa
:100a18000600fa00100798002107980081e2a90053
:100a280007e2a90007a2a9000762a9000742a900d6
:100a38000722a8000702a900001120002010880042
:100a4800e442a800e462a8000070200000148800b6
:100a5800f0002000101488001000200040148800c6
:100a680010002000601488009e009000014188005a
:100a78001e009000ae009000010878002e00900043
:100a880001102000808040001e0090001100980096
:100a98002e00900001202000808040001e00900061
:100aa800210098002e009000013020008080400036
:100ab8001e009000310098000000eb00000f780045
:100ac800070037001e00780000004000ae009000cc
:100ad800008040008000eb00010878001e0fe8004d
:100ae800f01f20009e007800808f5000f5ff340032
:100af8000080fa00000006000200fa00000f7800eb
:100b08001e0078008000eb00110898001e00780095
:100b180010089000800078000100a0001e007800f6
:100b2800110898001e0078001008900080007800d6
:100b38000110a0001e007800110898001e0078001f
:100b480010007800800078001e007800710098007e
:100b58001e00780020009000800078001e007800b9
:100b6800010898001e0078008000eb004100980002
:100b78001e007800f1072000510098001e00780040
:100b8800f1072000610098001e007800000890001e
:100b980010007800c014880007e2a8008b80a90024
:100ba8009b80a8001106800080ff2f000080600055
:100bb8000020a0001006880081e2a8000080fa004a
:100bc800000006000200fa00000f780081e2a90088
:100bd8009b80a9000080fa00000006000a00fa00c5
:100be8002007980031079800420798002e009000cf
:100bf80010089000640060000000e00004003a0063
:100c08002e00900090009000010f7800020037003d
:100c18002e009000100f7800ce00900000082000f1
:100c2800808f500002003400000820004007980020
:100c38000000eb00100798000c0037001e00900021
:100c480000004000be009000808040001e00900020
:100c5800000040001e004000100078008008780066
:100c68001e0090000000e800100798009e00900009
:100c78004e009000808f5000f0ff35000400fc000b
:100c88002e00900010089000800078000100a0005d
:100c98002e009000110898000000fc000080fa0067
:100ca800000006000200fa00000f78001e0078001d
:100cb800100890006200600000f0a7000000ea0041
:100cc8000000ea004f00de000080fa000000060085
:100cd8000200fa00000f78001e007800100890004b
:100ce8006100600000f0a7000000ea000000ea00d0
:100cf8004f00de000080fa00000006000a00fa003b
:100d08002007980031079800420798002e009000ad
:100d180010089000640060000000e00004003a0041
:100d28002e009000b0009000010f780003003700fb
:100d38002e009000a0009000010f7800ce009000d7
:100d480000082000808f50000200340000082000b6
:100d5800400798002e009000ce0090006100980097
:100d68000000eb00100798000c0037001e009000f0
:100d7800000040009e0040001e009000000040005f
:100d88003e019000000041001000780080087800c3
:100d98001e0090000000e800100798009e009000d8
:100da8004e009000808f5000f0ff35000400fc00da
:100db8002e00900010089000800078000110a0001c
:100dc8002e009000110898000000fc000080fa0036
:100dd800000006000800fa00100798002107980094
:100de800320798003e00900010007800000f78004d
:100df8001e40900061406000104798002e0090004f
:100e080000004000200798001e4090000080fb0072
:100e1800ae00900001007000200798000602a800ac
:100e28000000000030108000610060000000e00059
:100e3800fcff3a004003200010108800000000006a
:100e48004110800000002400008060000000e000e5
:100e5800fbff3a004110800000002800008060007d
:100e68000000e000080032000642a8000000000070
:100e780030108000640060000000e000fcff3a00d1
:100e88000080eb00320037002e0090001010880020
:100e98000000000041108000000024000080600075
:100ea8000000e000fbff3a0041108000000028002d
:100eb800008060000000e000080032000642a80040
:100ec8000000000030108000640060000000e000b6
:100ed800fcff3a000080eb001d0037001e40780040
:100ee8000080fb0010108800000000004110800006
:100ef80000002400008060000000e000fbff3a00d2
:100f08004110800000002800008060000000e00020
:100f1800080032000642a8000000000030108000df
:100f2800640060000000e000fcff3a000080eb0075
:100f3800070037000642a8000000000030108000bb
:100f4800640060000000e000fcff3a001000200090
:100f58000080fa00000006000600fa00200798004a
:100f680010002000100798000e80e80000017800ab
:100f78008000eb002e00900096ff0700000f78001d
:100f88001e007800e10f400001003a00ffff370023
:100f9800f0062000100798000e80e8000001780095
:100fa800110020002e0090008aff07001e00780024
:100fb800e10f400001003a00ffff37005001200018
:100fc800100798000e80e80000017800210020003a
:100fd8002e0090007fff07001e007800e10f400000
:100fe80001003a00ffff3700900820001007980022
:100ff8000e80e80000017800310020002e009000eb
:1010080074ff07001e007800e10f400001003a005d
:10101800ffff370080012000100798000e80e800cd
:1010280000017800410020002e00900069ff0700b1
:101038001e007800e10f400001003a00ffff370072
:10104800901a2000100798000e80e8000001780030
:10105800610020002e0090005eff07001e0078004f
:10106800e10f400001003a00ffff3700a000200018
:10107800100798000e80e800000178007100200039
:101088002e00900053ff07001e007800e10f40007b
:1010980001003a00ffff37004000200010079800c9
:1010a8000e80e80000017800810020002e009000ea
:1010b80048ff07001e007800e10f400001003a00d9
:1010c800ffff370080102000100798000e80e8000e
:1010d80000017800e10020002e0090003dff07008d
:1010e8001e007800e10f400001003a00ffff3700c2
:1010f80000042000100798000e80e8000001780026
:10110800b10120002e00900032ff07001e00780079
:10111800e10f400001003a00ffff370050002000b7
:10112800100798000e80e80000017800c101200037
:101138002e00900027ff07001e007800e10f4000f6
:1011480001003a00ffff3700f00320001007980065
:101158000e80e80000017800d10120002e009000e8
:101168001cff07001e007800e10f400001003a0054
:10117800ffff3700d0072000100798000e80e80016
:1011880000017800e10120002e00900011ff070007
:101198001e007800e10f400001003a00ffff370011
:1011a80000102000100798000e80e8000001780069
:1011b800e10120002e00900006ff07001e007800c5
:1011c800e10f400001003a00ffff370080012000d6
:1011d800100798000e80e800000178004102200006
:1011e8002e009000fbfe07001e007800e10f400073
:1011f80001003a00ffff3700c000200010079800e8
:101208000e80e80000017800510220002e009000b6
:10121800f0fe07001e007800e10f400001003a00d0
:10122800ffff370030092000100798000e80e80003
:1012380000017800610220002e009000e5fe070002
:101248001e007800e10f400001003a00ffff370060
:10125800900e2000100798000e80e800000178002a
:10126800710220002e009000dafe07001e007800b0
:10127800e10f400001003a00ffff37004000200066
:10128800100798000e80e80000017800c1022000d5
:101298002e009000cffe07001e007800e10f4000ee
:1012a80001003a00ffff37000000eb00100798002c
:1012b8000e80e80000017800f10220002e00900066
:1012c800c4fe07001e007800e10f400001003a004c
:1012d800ffff370010002000100798000e80e8007c
:1012e80000017800810320002e009000b9fe07005d
:1012f8001e007800e10f400001003a00ffff3700b0
:101308000080fa00000006000600fa002007980096
:1013180010002000100798000e80e80000017800f7
:101328008000eb002e009000aafe0700000f780056
:101338001e007800e10f400001003a00ffff37006f
:10134800f0062000100798000e80e80000017800e1
:10135800110020002e0090009efe07001e0078005d
:10136800e10f400001003a00ffff37005001200064
:10137800100798000e80e800000178002100200086
:101388002e00900093fe07001e007800e10f400039
:1013980001003a00ffff370090082000100798006e
:1013a8000e80e80000017800310020002e00900037
:1013b80088fe07001e007800e10f400001003a0097
:1013c800ffff370080012000100798000e80e8001a
:1013d80000017800410020002e0090007dfe0700eb
:1013e8001e007800e10f400001003a00ffff3700bf
:1013f80090162000100798000e80e8000001780081
:10140800610020002e00900072fe07001e00780088
:10141800e10f400001003a00ffff370060002000a4
:10142800100798000e80e800000178007100200085
:101438002e00900067fe07001e007800e10f4000b4
:1014480001003a00ffff3700400020001007980015
:101458000e80e80000017800810020002e00900036
:101468005cfe07001e007800e10f400001003a0012
:10147800ffff370080012000100798000e80e80069
:1014880000017800410220002e00900051fe070064
:101498001e007800e10f400001003a00ffff37000e
:1014a800c0002000100798000e80e80000017800b6
:1014b800510220002e00900046fe07001e00780012
:1014c800e10f400001003a00ffff3700300920001b
:1014d800100798000e80e8000001780061022000e3
:1014e8002e0090003bfe07001e007800e10f400030
:1014f80001003a00ffff3700900e20001007980007
:101508000e80e80000017800710220002e00900093
:1015180030fe07001e007800e10f400001003a008d
:10152800ffff370040002000100798000e80e800f9
:1015380000017800c10220002e00900025fe07005f
:101548001e007800e10f400001003a00ffff37005d
:101558000000eb00100798000e80e80000017800fa
:10156800f10220002e0090001afe07001e007800ed
:10157800e10f400001003a00ffff37001000200093
:10158800100798000e80e800000178008103200011
:101598002e0090000ffe07001e007800e10f4000ab
:1015a80001003a00ffff37000080fa000000060043
:1015b8000800fa0020079800310798002ca3a8001b
:1015c800c6a2a900caa2a8006000b800008fbe0089
:1015d8000500370000000000120020000300200072
:1015e8001e0f41005e974900f0ff21000100200016
:1015f8001e01be00800f5100818f5900f5ff340095
:10160800ae019000f3408800f0408000be009000da
:10161800010878004382a9004362a9004342a90057
:101628004322a8004302a80042c2a90042a2a8007f
:1016380042e2a9001112800030fe2f0000806000f5
:101648008001b3001012880011128000c0ff2f0023
:10165800008060000010a0001012880045e2a90078
:101668002c43a800c642a900ca42a80041a2a9006a
:101678001e21ef001421ef0000322000d00888005e
:101688008760a9009760a8000080fa0000000600a3
:101698000200fa00000f78009540a80041e2a80077
:1016a8001e0078008000eb00210098001e007800e2
:1016b8008000eb00110098001e0078008000eb000d
:1016c800410098001e0078008000eb00310098006f
:1016d800ca42a8000080fa00000006000200fa00d2
:1016e800000f78001e007800a00090000002200083
:1016f800008060000000e0000200320010002000be
:10170800270037001e00780020009000700060005d
:101718000000e00002003200100020002000370026
:10172800ca42a900500020004012880000000000b2
:101738001e00780020009000680060000000e000b3
:10174800fbff32001e007800a000900070ff2f0001
:10175800808060001e007800210098004822ef0079
:10176800000000001e007800200090006800600063
:101778000000e000fbff32001e007800a00090008f
:1017880070ff2f00808060001e0078002100980004
:10179800ca42a8001e007800100090006100600096
:1017a8000080fa00000006000e00fa0020079800ea
:1017b800320798004307980051079800640798007b
:1017c8002e0090001000780010079800ee0090009e
:1017d80000082000808f500002003400000820001c
:1017e800600798000000eb00000f78000900370040
:1017f8001e0078009e009000008040009e00780047
:101808005e01900081004100914078000148780015
:101818001e0fe8006e0090009e007800808f500038
:10182800f3ff35002e009000200090008000780023
:101838000150a0002e009000210098002e0090007a
:10184800ee009000310098002e0090003e019000bc
:10185800ce01900062009800730098002e0090005e
:101868008000eb00410098002e009000900090004e
:1018780080ff2f00808060002e00900011009800eb
:10188800ca42a900f00a2000401288000080fa002d
:10189800000006000e00fa00889fbe00200798008e
:1018a800320798004307980051079800640798008a
:1018b8003e019000ce01900000002000f10f2000b2
:1018c80002027800030178008001780001007800a6
:1018d80003026200000061008000eb00c000dd0030
:1018e800000020000001be006120b8000001710066
:1018f80081817100409cde00cf9cde00084f78009b
:101908003e019000ce01900000f02f000100200061
:101918000202780003017800800178000100780055
:1019280003026200000061008000eb00c000dd00df
:10193800000020000001be006120b8000001710015
:1019480081817100c818dd004813de00068370002d
:10195800c89bde00164798003e009000204798007c
:10196800ee00900000082000808f50000400340032
:101978002e00900001082000310098000300370075
:101988002e009000ee00900031009800de009000dc
:101998002e009000510098002e0090008000eb006f
:1019a80041009800ca42a900300020004012880077
:1019b800000000002e0090002000900068006000e9
:1019c8000000e000fbff32002e009000a000900015
:1019d80070ff2f00808060002e009000210098008a
:1019e8001e00fb0040128800000000002e0090003e
:1019f80020009000680060000000e000fbff32005b
:101a08002e009000a000900070ff2f0080806000e2
:101a18002e009000210098001e4090000000fb005e
:101a280040128800000000002e0090002000900066
:101a3800680060000000e000fbff32002e0090000c
:101a4800a000900070ff2f00808060002e009000a2
:101a5800210098002e4090000000fb0040128800f2
:101a6800000000002e009000200090006800600038
:101a78000000e000fbff32002e009000a000900064
:101a880070ff2f00808060002e00900021009800d9
:101a98004822ef002e00900020009000800078007f
:101aa8000140a0002e009000210098004f04be00c5
:101ab8000080fa00000006001000fa0050079800a5
:101ac80061079800720798006e009000e90f5000b7
:101ad80044003a00fe00900011079800ca42a9008d
:101ae8002005200040128800000000005e009000e1
:101af80020009000680060000000e000fbff32005a
:101b08005e009000a000900070ff2f0080806000b1
:101b18005e009000210098001e0090000080e80000
:101b2800104078000000fb00401288000000000010
:101b38005e00900020009000680060000000e00057
:101b4800fbff32005e009000a000900070ff2f00a5
:101b5800808060005e009000210098001e009000c8
:101b68000000e800104078000000fb0040128800e8
:101b7800000000005e0090002000900068006000f7
:101b88000000e000fbff32005e009000a000900023
:101b980070ff2f00808060005e0090002100980098
:101ba8001e009000104078000000fb0040128800e2
:101bb800000000005e0090002000900068006000b7
:101bc8000000e000fbff32005e009000a0009000e3
:101bd80070ff2f00808060005e0090002100980058
:101be800ca42a8006e009000e20f500042003a007e
:101bf800fe00900021079800ca42a90000092000b1
:101c080040128800000000005e0090002000900054
:101c1800680060000000e000fbff32005e009000fa
:101c2800a000900070ff2f00808060005e00900090
:101c3800210098000000eb00000f78000e0037002c
:101c48004822ef00000000005e0090002000900095
:101c5800680060000000e000fbff32005e009000ba
:101c6800a000900070ff2f00808060005e00900050
:101c7800210098001e0fe8001e007800e20f5000b7
:101c8800efff34000000eb00000f7800150037006c
:101c98004822ef00000000005e0090002000900045
:101ca800680060000000e000fbff32005e0090006a
:101cb800a000900070ff2f00808060005e00900000
:101cc800210098001e007800ae00900000804000bf
:101cd800de00900091009000814078000148780073
:101ce8001e0fe8001e007800e30f5000e8ff3400e4
:101cf800ca42a800890037006e009000e30f500028
:101d080025003a00fe00900031079800ca42a90059
:101d18005000200040128800000000005e00900083
:101d280020009000680060000000e000fbff320027
:101d38005e009000a000900070ff2f00808060007f
:101d48005e009000210098004822ef00000000008b
:101d58005e00900020009000680060000000e00035
:101d6800fbff32005e009000a000900070ff2f0083
:101d7800808060005e009000210098005e00900066
:101d880010009000804078003e00900001487800e4
:101d9800ca42a800610037006e009000ea0f5000a8
:101da80011003a00ca42a90000052000401288002c
:101db800000000005e0090002000900068006000b5
:101dc8000000e000fbff32005e009000a0009000e1
:101dd80070ff2f00808060005e0090002100980056
:101de800ca42a8004d0037006e009000e40f500072
:101df80011003a00ca42a900600020004012880081
:101e0800000000005e009000200090006800600064
:101e18000000e000fbff32005e009000a000900090
:101e280070ff2f00808060005e0090002100980005
:101e3800ca42a800390037006e009000e50f500034
:101e480023003a00fe00900041079800ca42a9000a
:101e58001000200040128800000000005e00900082
:101e680020009000680060000000e000fbff3200e6
:101e78005e009000a000900070ff2f00808060003e
:101e88005e009000210098004e00900010407800fd
:101e98000000fb0040128800000000005e00900077
:101ea80020009000680060000000e000fbff3200a6
:101eb8005e009000a000900070ff2f0080806000fe
:101ec8005e00900021009800ca42a8001300370065
:101ed8006e009000e10f500010003a00ca42a900bd
:101ee8000006200040128800000000005e009000fc
:101ef80020009000680060000000e000fbff320056
:101f08005e009000a000900070ff2f0080806000ad
:101f18005e00900021009800ca42a8000080fa00e4
:101f2800000006000200fa0090022000303a880003
:101f3800213a8000f0f32f0000806000203a8800ea
:101f4800213a800000fe2f0000806000203a8800bf
:101f58004827ef001200200080072000a109200078
:101f680033742000804978008149780082497800dc
:101f78001200200060042000710520002374200056
:101f88008049780081497800824978000000000083
:101f9800113a8000000027008080600000002100c6
:101fa800808f5000faff3a0000000000113a8000cc
:101fb80000022000008060000000e000fbff32000b
:101fc8000c28ef000e28ef000028ef000228ef0091
:101fd80000002000210020002040880031408800b7
:101fe8000000200021002000404088005140880067
:101ff8001228ef001428ef001028ef0087010700cf
:10200800b04080002182200081fa0700c040800093
:1020180021ea200066fd0700c04080009cfd070003
:10202800b0408000b4fa0700b0408000cafb070047
:102038000000eb00000f7800c04080000001eb00ba
:10204800a10020009cfe0700c04080000e0178001f
:102058005100200098fe070000000000b0408000fa
:102068001bfb07000000e000fcff3a00b0408000c6
:102078000208200021c22000d8fa07006040800032
:102088000000e00022003a00704080000000e000fc
:102098001f003a0000000000c04080008ffd0700cc
:1020a8000000e000fcff3a0002408000134080007e
:1020b800c04080000408200021d22000f5fd070060
:1020c80000000000c040800084fd07000000e00020
:1020d800fcff3a0000408000114080000008b0007a
:1020e8000180b00000408800114088000240800054
:1020f8001340800000f0270011002000800f5100dd
:10210800818f5900020034000028ef000228ef00f8
:1021180060408000e10f50005b003a008040800082
:102128000000e00032003a00b0408000a5fa070045
:102138000000200021002000204088003140880055
:102148000000200021002000404088005140880005
:10215800d1e2a90000002000210020009040880062
:10216800a140880015003700c04080000001eb0046
:102178004100200050fe0700c0408000228120005e
:10218800910020004cfe070000000000c0408000c5
:1021980052fd07000000e000fcff3a00924080007a
:1021a800a340800000002800010020000200400039
:1021b8008380480090408800a140880092408000b9
:1021c800a3408000e0ff2f0071002000800f510025
:1021d800818f5900e4ff3400d1e2a80010002000ec
:1021e80080408800b040800043fa0700260037008e
:1021f800d1a2a9000208200021d2200020c220007c
:102208007f00070000000000c040800033fd070089
:102218000000e000fcff3a00c04080000001eb0035
:102228004100200024fe0700224080003340800047
:10223800c04080000408200021d220005afd070079
:1022480020408000314080000008b0000180b000cc
:1022580020408800314088002240800033408000c0
:10226800e0ff2f0071002000800f5100818f59007e
:1022780005003400d1a2a8001028ef000c28ef00b8
:10228800100020007040880070408000e10f50006e
:1022980023003a00d1c2a9001028ef000000000076
:1022a800c04080000dfd07000000e000fcff3a0080
:1022b8004240800053408000c04080000408200055
:1022c80021d2200073fd070000000000c0408000fc
:1022d80002fd07000000e000fcff3a0040408000db
:1022e800514080000008b0000180b00040408800e4
:1022f80051408800424080005340800020408000c8
:1023080031408000800f5100818f59000400350052
:102318000000200021002000404088005140880033
:102328000208200021da200020d2200058000700ef
:1023380000000000b04080005afa07000000e000ea
:10234800fcff3a00b04080000208200021da20009b
:102358006afa0700c2000700e10f50000c003a00bb
:10236800604080000000a200604088000028ef0064
:102378000228ef0060408000e10f500003003a009f
:102388000e28ef00d1c2a80001003700d1a2a80092
:10239800c9000700e10f500017003a0080168000be
:1023a8004e00de00614060000004a2006140600051
:1023b8000080fb00610060004e00dd008216800096
:1023c800f1ff2b0081006100010070008016880079
:1023d800704080000000a200704088000028ef00d4
:1023e8000228ef0070408000e10f500002003a0020
:1023f8000c28ef00d1a2a8000000000017ff37004a
:102408008002780001037800820378000700e0006a
:102418001e003400350078000300280083006000a7
:10242800c808de0000f0a7000000ea00b3f72700a4
:102438000300e10001003900030078004308200090
:10244800030040000081cf000b0031009300200002
:102458000281510001003b000001eb00e301410053
:102468000302de00f3002000030262004411dd00d5
:1024780002027200010272000480ea00f00fb2004a
:10248800005b78008703e900e2ff3a0000000600dd
:102498008002780001037800820378000700e000da
:1024a80015003400354078000080ea000308200059
:1024b8008300600003072000030160004411de0070
:1024c8000281e800f300200003026000700272003d
:1024d8000402d0000402e8000222dd0043082000c4
:1024e800030252000170a7000402ea00041b7800ee
:1024f8008703e900ebff3a0000000600800278003d
:1025080001037800820378000700e000230034000c
:10251800350078000000e00002003a005005200075
:102528001b0037000300280083006000c808de0095
:1025380000f0a7000000ea00f3ff27000300e10015
:1025480001003900030078000081cf000600310047
:102558006910e10004003d00930020000281510051
:10256800e3014100020037000001eb0043002000b6
:102578000302de00f3002000030262004411dd00c4
:102588000202720001027200530d200003406a002b
:10259800005b78008703e900ddff3a0000000600d1
:1025a8008002780001037800820378000700e000c9
:1025b800190034000000eb0035407800530d20006e
:1025c80000c06900030820008300600003072000a2
:1025d800030160004411de006f0260004422dd0048
:1025e800680042000200e0000200320003102000f0
:1025f800030040006110e100020034000201e9001c
:102608000200dd000170a7000000ea00001b78004e
:102618008703e900e7ff3a00000006000000fa001f
:10262800cda2a900cde2a900cdc2a900d1a2a800df
:10263800d1e2a800d1c2a800d302a800d322a800e2
:10264800e402a900e422a900e802a900e822a900fe
:102658001a28ef001c28ef000080fa00000006008e
:102668000200fa00a116800000102000008060001f
:102678000000e0000a003a00d04080000000e800b6
:10268800d0408800d0408000ec0f500007003a008e
:102698001a28ef0010002000000f78000300370010
:1026a8001a28ef000000eb00000f78001e007800e9
:1026b8000080fa00000006000200fa00a11680005f
:1026c80000202000008060000000e0000a003a00be
:1026d800e04080000000e800e0408800e040800022
:1026e800ec0f500007003a001c28ef0010002000f3
:1026f800000f7800030037001c28ef000000eb00f3
:10270800000f78001e0078000080fa000000060024
:020000040000fa
:10271800220800002407000000000000160800003e
:102728000400000002000000220f36000f00000025
:102738000008000016000000000000001a08000051
:1027480004000000000000001e0800000200000055
:102758000000000020080000020000000000000047
:04276800000000006d
:020000040000fa
:0200000401f009
:04000800ffff0000f6
:020000040000fa
:0200000401f009
:04000c00f8ff0000f9
:020000040000fa
:0200000401f009
:040010007bff000072
:020000040000fa
:0200000401f009
:040014007fff00006a
:00000001FF
