:020000040000fa
:080000000002040000000000f2
:020000040000fa
:10040000aff4200000bf27000001880000000000ba
:100410000c000700e0392200010020001100070055
:10042000000020000000e000020032000000020096
:1004300000000000f4200200000000000040da008c
:100440000000fe004440a900004320000000e0003e
:100450000300320000002000a00188004440a800f2
:100460000000060091018800800078000000eb0089
:1004700015003700e280400032a0b4009101ba00bc
:10048000e280400032a0b4009102ba00e280400055
:1004900032a0b4000002eb00472bde00f507b200eb
:1004a000602ce10004003a000059eb008301e900f0
:1004b000fdff3e00040037006128e100010032002a
:1004c0000082eb00040007001101ba000200e00006
:1004d000e8ff3a00000006003159ba008301e90044
:1004e0000c0032002159ba008301e90008003200f3
:1004f0000400e00003003a00e280400032a0b400b3
:10050000f5ff370011d9ba008301e900faff3a007c
:100510008100e800e180400032a0b4000000060045
:100520000000fe00519099000000060071b89a008a
:100530000000060000017800f0052000808f5000c8
:100540000d003e000080eb000100e00002003c00d6
:1005500060919900000006000000eb000000e80038
:10056000808f5000fdff3a0000fe2f000088b90088
:1005700060919900000006000000060080017800ec
:100580000100e00004003a0012002000b29199003e
:1005900082999900000006008200e90030062000e0
:1005a000808f5000fbff3e00b29199008299990024
:1005b000f8ff370012989900239899000000060070
:1005c000ef8f500001003e0071909900000006007e
:1005d0000001780040062000808f500008003200a3
:1005e000c0122000808f50000a0032006066200098
:1005f00040099900909927005009990000000600d1
:10060000c0cc2000400999003033270050099900e0
:10061000000006003033200040099900c0cc2700bc
:100620005009990000000600889fbe008a9fbe0006
:1006300080047800820578000000eb000005780057
:10064000023020000ab07c000080e800820f5000d9
:10065000fcff3a0018002000880c7800f0ff27000b
:10066000b0349800c034980009007800adff07004e
:100670008b00780009007800acff0700f100200033
:1006800009007800abff07006200200088007800b6
:1006900009007800b9ff070072912100d301200002
:1006a00009007800c3ff0700811b200089804000fb
:1006b0000a007800020a20008098eb000000e800a1
:1006c000820f5000fcff3a000000eb00b09c990044
:1006d0002100200009007800b9ff0700810c2000ec
:1006e00009007800baff07004f05be004f04be00a6
:1006f00000000600a000fa00889fbe008a1f780054
:100700008004780001047800020578000200e0000f
:100710001600320079b9920088007800090078004c
:1007200026040200000000000a00e000040032007d
:100730004f0578004f04be000080fa00000006005c
:100740000205200088007800a0f52f000f0040006f
:1007500064040200000000004f0578004f04be0052
:100760000080fa0000000600f5ff370002052000b7
:10077000a1f52f008f80400008007800640402007b
:100780000000000079b99200880078000900780024
:1007900026040200000000000a00e000e4ff3a0026
:1007a000e7ff3700609091000000e9008000eb0057
:1007b000e10f4000040032008100e8000002b000b8
:1007c000e10f4000fcff3a00010078000000060045
:1007d0000098910000000600709091000000060053
:1007e0004009910041062000c0cc2000800f51003c
:1007f00005003200c112200030332000800f51006c
:1008000001003200810c2000010078000000060089
:100810000001780020989100cf80de00c000dd004c
:1008200000002000129991000300200002007000d7
:1008300083807000000006004090910000000600d8
:10084000020520009c040400000000001000fa00d3
:10085000000f780011079800220798001e0078000a
:1008600070079800ea00470066004700d1000700c3
:10087000ec00470068004700d30007007e009000ae
:10088000e019b00006052000800278001e029000ea
:10089000ce0190006e019000be0090005e009000be
:1008a000ce0007002e0190009e0090001e007800f0
:1008b00014010700010520001e0090008c000700b5
:1008c0000080fa00000006000201e9000280090031
:1008d000b0187800000006004400f800010f200066
:1008e00021028800c1112000008040001281c30055
:1008f0000f000800040000001201c300300278005d
:100900003000ca00140188000080cb006001800024
:10091000010020000080500003003400f0ff2f0091
:10092000f1ff2f00020037005101800040018000dc
:100930004400f900000006003400f8004400f8000c
:10094000881f7800891f78004400a9004420a8006f
:100950004440a800000000000000000000047800ef
:100960001200b100820478001201c300098008005f
:1009700001000000380278001001f0000104780046
:1009800002002000210180000100e00005003a0083
:1009900000ff2f00110180000101df000201fb00b8
:1009a000020037000100df000000fb008200400071
:1009b000798140006f10e10002003c000200c80095
:1009c00005003700f30020000300c80014ff2f00cb
:1009d000840141000300c80012018000f3012000df
:1009e0000282610002002000a2018800e37a29004f
:1009f0004122dd000000000063007a008100ea006f
:100a00001281c300410188007680c8004101800046
:100a100001025000450526001301c0004100c80036
:100a20001281c3000980080001000000380278002c
:100a30001081f00002002000510180000100e00060
:100a400005003a0000ff2f00410180000101df0096
:100a50000201fb00020037000100df000000fb0084
:100a600082004000798140006f10e10002003c00ec
:100a70000280c80005003700f30020000380c80092
:100a800014ff2f00840141000380c8004201800050
:100a9000f30120000282610002002000a201880010
:100aa000e37a29004122dd000000000063007a00a3
:100ab0008100ea001281c300410188007680c800ed
:100ac0004101800001025000450526001381c0004d
:100ad0004180c8000030cb008003cd00cf047800f7
:100ae0004f0478004400f9003400f90000000600cb
:100af000889fbe008a9fbe008c9fbe003400f80015
:100b00004400f800670e20002702880000047800e7
:100b10008100e90001800800010000001800ca00ff
:100b2000b807cc004400f9003400f9004f06be00bd
:100b30004f05be004f04be0000000600020020006a
:100b4000433f29000208780083087800000006006f
:100b5000020020004347290002087800830878003b
:100b60000000060002002000434f29000208780020
:100b7000830878000000060002002000435f29007f
:100b800002087800830878000000060002002000b8
:100b9000436c2900020878008308780000000600f2
:100ba00002002000437029000208780083087800c2
:100bb0000000060002002000a3812900020878003e
:100bc000830878000000060002002000038229004c
:100bd000020878008308780000000600889fbe00a5
:100be0008a9fbe008c9fbe003400f8004400f800cd
:100bf000670e20002702880000047800a101880009
:100c000082047800a3018800040578008405780038
:100c100005067800060078001000b1002900b00039
:100c2000008008003000000004002100ba03ca0060
:100c30001501800026018000c12ade001301c000da
:100c40004f00c800d203c100ac0290003c039000ea
:100c5000c12ade001381c0004f80c8005282c1004b
:100c60000030cb008c0390001c03900027069800f6
:100c7000c13bde001381c2004f80c8001281c10059
:100c80000030cb003c0390001c029000340698001a
:100c9000280290001381c0004f80c8001281c1005b
:100ca0001c0390007d00c80014018000041e780021
:100cb0002c00cc00180290001301c2004f00c800a5
:100cc0001200c1000000cb008c0390001c039000b8
:100cd000c13bde001381c2004f80c8001281c100f9
:100ce0000000cb007600c8003b00cd004400f900b6
:100cf0003400f9004f06be004f05be004f04be0091
:100d0000000006002e00fa00000798001107980066
:100d10002207980000002000300798000e00900085
:100d2000601798006e10900050909100200f98006e
:100d3000ae089000410798002e0890000004b00013
:100d4000200f98002e099000620798002e0890004e
:100d50000002b000200f9800ae01900053079800e9
:100d6000610220008e804000400220000e00400002
:100d700081ff07002e139000be1290005e029000cb
:100d8000ee11900022002000010520001e009000be
:100d9000e0000700600f9800110020005e00900046
:100da000af0007006e10900014002000900f12009a
:100db00005003a00f0ff2700000f98000000200017
:100dc000100f98000400370060662400000f9800a0
:100dd00090992300100f9800610220008e8040003f
:100de000400220000e00400068ff0700a102200022
:100df0008e804000800220000e00400068ff070047
:100e00006e109000c111200080804000ce12900032
:100e1000851f7800de1390002e139000be12900004
:100e20006e0a90009e0990000e0990005e009000ee
:100e3000300107008f87e9006e1090001000e0007d
:100e40003000340000002000300f98003e08900071
:100e5000ef0f50002b003c006e119000be08900078
:100e6000400020000008b80000004100c21120002e
:100e700000014100f0ff200001002000b20f10002f
:100e8000a28f18000c003c006e119000be0890006c
:100e9000400020000008b80000004100c2152000fa
:100ea00000014100f0ff20000000e80001002000e8
:100eb0000089be000f0037006e119000be08900040
:100ec000400020000008b80000004100c3152000c9
:100ed000808141006e119000be089000400020000b
:100ee0000008b80000004100c011b0001002be00b0
:100ef0008489be003e0890000000e800300f980092
:100f0000d2ff37006e109000c11520008080400095
:100f10006e109000c011b0006e019000d601070065
:100f20006e10900060919100ce0090006e009000d5
:100f3000dd020700610220008e8040004002200098
:100f40000e00400011ff07006e10900061062000a7
:100f500080804000ae1190003e1190004e00900045
:100f6000050307006e119000ee1090006e109000c7
:100f700050309000c0309800303198006e109000d2
:100f800044030700400f98000000e0000900320011
:100f90006e10900040099100d00991006e109000f1
:100fa000c1112000808040006e109000c015b0007c
:100fb0009e0307006e1090006106200080804000b4
:100fc000020820005e0090001e040700420020007e
:100fd000010820005e00900034040700500f9800c4
:100fe0008080eb005e0090001d000700ee0890007e
:100ff0005e08900000814000010820005e00900023
:1010000061040700ee1090006e1090006600400032
:101010000505200004082000a10190001e01900099
:10102000800078005e00900082040700ee109000bf
:101030001e019000000520004100dd00620050000c
:101040000200400010007800a0009800ee10900010
:1010500000002000800878000080fa0000000600f0
:101060000a00fa00000f7800110798000000000045
:101070001e009000e10f500014003a00e400470009
:1010800066004700adfe0700be0190002e019000f3
:101090009e00780060002000990407009e00780000
:1010a00060002000d2040700e4004700660047000b
:1010b000acfe0700be0190002e0190000108200048
:1010c0001e007800e504070010003700e400470028
:1010d00066004700a3fe0700be0190002e019000ad
:1010e000010820001e00780027050700e4004700e3
:1010f0006600470096fe0700be0190002e0190009a
:101100009e00780060002000700507000080fa0053
:1011100000000600889fbe008a9fbe008c9fbe0014
:101120003400f8004400f800670e20002702880011
:101130000004780000067800830478000405780035
:1011400085057800a6018800000378002100b10021
:1011500038007800800178000000e00001003d00c8
:101160008001ea00010278001400b000018008004c
:1011700007000000380078000000e00001003d009a
:101180000000ea000300e100010034008001780063
:10119000000000000300df000000fb000300e0008f
:1011a00001003a00000020000000ea0002005000a8
:1011b00080017800000178001200b0001281c300a5
:1011c0000000ea0015002000550188000280c800d8
:1011d00004800800030000001c00ca000000cb00cf
:1011e0000000c8003c00cc0003007800e9889100b2
:1011f0000904780001015000880eb000e08c9900cd
:101200000a0678001281c3000200ea001200b00052
:1012100015002000550188000280c8001700080052
:10122000030000003800ca000000cb000000c80026
:101230003c00cc00090478002800b0001800ca0067
:101240000000cb000000c8001800cc00a4992900c1
:10125000980278001301c000060478001880ca00c4
:101260000000cb003c00cc00b80278004e00080023
:10127000020000001800ca005210c0003c00cc0060
:101280000604780078889000900498001201c3004a
:10129000170009003c00cc000a0678000c0ab000d8
:1012a00009047800880eb000170008000100000053
:1012b0003c00ca003800cc008a0478000b04780097
:1012c0004604c300670008000200000000000000a0
:1012d0004704c0003900cd00030078004400f90045
:1012e0003400f9004f06be004f05be004f04be009b
:1012f00000000600889fbe008a9fbe008c9fbe0033
:101300003400f8004400f8004200f8006a0e2000a3
:101310002a0288000005780081057800050478001d
:10132000a6018800870478008f0678004db69700e4
:10133000ac01880002037800830378008401780000
:10134000c119dd007300b1000a0678000f00080023
:10135000c1000000180078009800900080805000c4
:101360004200dd000a0540003a0278001201c30085
:1013700001800800010000000401f0000401f000f9
:10138000190078006100e10003003a0019009000a4
:101390000000c800310037002101800024018000d6
:1013a000150180000100e00004003a0011018000f6
:1013b00020fe2f001100b1000b003200210180003f
:1013c0000100df000000fb0012ff2f000200e1001f
:1013d0004100c80004003a00110180000101df0053
:1013e0000201fb0000004100240188001501880073
:1013f000800078000008a300050032004180de0074
:101400000000c8001000b0000000c8000300370052
:101410004180de000000c8000000c80024018000f8
:10142000990290001301c000010078000008a30099
:10143000060032000000ea004180de000000c80023
:101440001000b0000000c800040037000000ea00ef
:101450004180de000000c8000000c80021018000bb
:1014600024018000150180000100e00004003a0022
:101470001101800020fe2f001100b1000b0032008e
:10148000210180000100df000000fb0012ff2f009f
:101490004100c8000200e10004003a001101800090
:1014a0000101df000201fb0000004100240188006f
:1014b00015018800800078000008a30005003200b4
:1014c0004180de000000c8001000b0000000c8002d
:1014d000030037004180de000000c8000000c800a3
:1014e0002401800015018000c12ade001381c400a0
:1014f0004f80c8001281c100010078000008a300dd
:10150000060032000000ea004180de000080c800d2
:101510001000b0000080c800040037000000ea009e
:101520004180de000080c8000080c8006f18e10024
:10153000020034004f80c800ef8151000380c800d2
:101540001b00be00210188001001880021018000dd
:101550000100e00004003a001101800020fe2f008d
:101560001100b1000b003200210180000100df00fa
:101570000000fb0012ff2f004100c8000200e10044
:1015800004003a00110180000101df000201fb00ac
:1015900000004100bb0078002b00ca001101880048
:1015a000800078000008a300050032004180de00c2
:1015b0000000c8001000b0000000c80003003700a1
:1015c0004180de000000c8000000c8002401800047
:1015d00015018000c12ade001301c5004f00c800bc
:1015e0001201c200010078000008a30006003200ca
:1015f0000000ea004180de000000c8001000b000da
:101600000000c800040037000000ea004180de004e
:101610000000c8000000c8000000cb0011018000dd
:10162000811d78002b00cc00040120000500200063
:101630001281c300440188000030cb0021018000ea
:101640000100e00001003d00848dbe004b00b000b1
:101650004800b0000c0578004900b0004200f900d5
:101660004400f9003400f9004f06be004f05be00eb
:101670004f04be0000000600889fbe008a9fbe0087
:101680008c9fbe003400f8004400f8004200f800cf
:101690001000fa008f0678002d00b100670e2000c0
:1016a0002702880000047800810478000205780091
:1016b000f0ff2f00f1ff27008096be000f0008000a
:1016c000f0000000b90078003900ca00110188005c
:1016d000220180000200e00003003a0020fe2f00fb
:1016e0001100b1000d0032002101800024018000b2
:1016f000150180000100df000000fb0012ff2f0039
:101700000200e1004100c80004003a00110180001d
:101710000101df000201fb000000410024018800fc
:10172000150188008000ea000008a30005003200cf
:101730004180de000000c8001000b0000000c800ba
:10174000030037004180de000000c8000000c80030
:10175000380178003880ca004201880050018000ba
:101760000000e00003003a0020fe2f001200b1004c
:101770000d003200520180005401800045018000bc
:101780000200df000000fb0012ff2f000200e1005a
:101790004180c80004003a00430180000301df00db
:1017a0000201fb000000410054018800450188004f
:1017b0000001ea001000b0000008a300050032009c
:1017c0004180de000080c8001000b0000080c8002a
:1017d000030037004180de000080c8000080c800a0
:1017e0004401800055018000849ebe0001067800ff
:1017f000f0ff230023018000110009000300d9003d
:10180000000278001501800026018000c12ade0058
:101810001301c0004f00c8001201c1003d03780051
:101820001d80ca004601880000b0cb004501800041
:1018300056018000c12ade001381c0004f80c8001d
:101840001281c1006d00b1003d0378002d00ca0077
:10185000160188002d00b100140180004122de0035
:1018600045018000c12ade0026018000570180006a
:101870001301c0004f00c8004100c8001381c4001c
:101880004180c8000000cb001381c2004180c80025
:101890000000cb004e00c8001201c6007e00c80048
:1018a000a40120008c0078000402410001005200d5
:1018b000f40120000400e1000a003500210180004d
:1018c000f10f200031018800f1ff2f002101880075
:1018d000110188000100e0000c0034001201c30077
:1018e0000a0037000008a300050032004180de0036
:1018f0000000c8004100c8000000c8000300370015
:101900004180de000000c8000000c8002401800003
:10191000150180000501720004003a001201c300a5
:10192000040020001500200015018800110180002e
:10193000200180000000e00003003a0020fe2f009c
:101940001100b1000b003200210180000100df0016
:101950000000fb0012ff2f000200e1004100c80060
:1019600004003a00110180000101df000201fb00c8
:1019700000004100240188001501880080007800e3
:101980000008a300050032004180de000000c8000e
:101990001000b0000000c800030037004180de00e6
:1019a0000000c8000000c800810378001700b100e3
:1019b000240180001281c300020028004201880037
:1019c0001081f00056018000654d2d001301c40008
:1019d00055fc27001201c00005b32a00850e7800cf
:1019e0001d80ca000000cb004300c8001101800028
:1019f000200180001201c300f43f200004006000b9
:101a00002001880011018800870e78003d80ca00ff
:101a10007680c8000000cb00846822002501800089
:101a2000160180004133de001301c1004f00c800e1
:101a30001201c0001281c3002008220081092e007b
:101a400050018800410188000000cb002401800083
:101a5000e58122001301c000200180000000e000a9
:101a600001003d001201c3001281c300600020008c
:101a7000500188000000cb0024018000b5aa20009e
:101a80001301c0003a00cc000080fa004200f900c7
:101a90004400f9003400f9004f06be004f05be00b7
:101aa0004f04be0000000600889fbe008a9fbe0053
:101ab0008c9fbe003400f8004400f800670e200040
:101ac000270288000004780081047800f4ff2700d2
:101ad0001281c3008200780051018800fcff2f00b2
:101ae0006c018800f7a12300030028001201c30045
:101af00013018800620020000f000800170000009a
:101b00009802110001003c00020c780098021100bc
:101b10001201c000260180001301c6007b00c8002e
:101b20000000cb0000000000250180000500e0005f
:101b3000020034001201c300000000001501800003
:101b4000851c78003900cc00510188006c018800a8
:101b50002422b1001201c300130188002800b00044
:101b60004400f9003400f9004f06be004f05be00e6
:101b70004f04be0000000600889fbe008a9fbe0082
:101b80008c9fbe003400f8004400f8004200f800ca
:101b9000670e20002702880000047800d7cc2000c0
:101ba00026332700676620004100b000a3018800ab
:101bb0000f0008002f0000003802be004122de00a6
:101bc0001381c2004f80c8001281c5007b80c8000d
:101bd00054018000450180008501720002003a0036
:101be000f4ff2f00f5ff2f00d6a42600c12ade0047
:101bf0001381c4004f80c8001281c1007e80c800dc
:101c000006022000540180001301c1002901800058
:101c1000f6ff2f0006851400260188004100c80049
:101c2000140180001101f0000500cd00f65e2100d6
:101c30001301c400f65625001201c100d4fb270091
:101c40001281c300540188000000cb000a00e000ac
:101c5000010034000a00c8002401800092027800cc
:101c600012039000050353000680090084187800d1
:101c70004200b000000000004200f9004400f900fa
:101c80003400f9004f06be004f05be004f04be00f1
:101c900000000600889fbe008a9fbe008c1f78004f
:101ca00080047800681b2000000444001880e800cd
:101cb000000c78000c0a20008c0f5000010034004a
:101cc000000ceb00090078006c040200000000002a
:101cd0000005be00c10d200018804000000040003b
:101ce0000bb07c00008044001a009800831b200089
:101cf000898141000083eb008083eb000002eb0050
:101d00008c02780013007800cf80de00c000dd0078
:101d1000000020006108b800c000dd0000002000c5
:101d20001301900002004000e0804800800f530043
:101d3000818f5b00010036000003be000482e800d2
:101d4000e4814100850f5200eeff3a007990910046
:101d50000000e900030033000603430087834b00c3
:101d6000fbff3700860f5500878f5d00240036008b
:101d7000601a20000900400089989100010878004d
:101d80001000e0002600340010002000c0949900ec
:101d900029989100cf80de00c000dd000000200007
:101da0006109b800c011dd000200200019989100ff
:101db00000004100e0804900800f5500818f5d00e8
:101dc000090036004990910011002000810f500059
:101dd00005003200010078004f0678004f05be0074
:101de0004f04be0000000600000020004f067800ef
:101df0004f05be004f04be0000000600faff37008a
:101e0000601a200009004000900078000100e00006
:101e1000030034000108e9004240a900daff3c0059
:101e20000000eb00c0949900d9ff3700889fbe00e6
:101e30008a9fbe008c9fbe003400f8004400f8006a
:101e40004200f800670e2000270288000004780096
:101e50008104780082037800030378000f000800f3
:101e600070000000380278002800ca0025018000b8
:101e7000140188001101800020fe2f001100b10024
:101e80000d00320021018000240180001501800036
:101e90000100df000000fb0012ff2f000200e10044
:101ea0004100c80004003a00110180000101df0078
:101eb0000201fb0000004100240188001501880098
:101ec000800078000008a300050032004180de0099
:101ed0000000c8001000b0000000c8000300370078
:101ee0004180de000000c8000000c800240180001e
:101ef0001301c100010078000008a30006003200b1
:101f00000000ea004180de000000c8001000b000c0
:101f10000000c800040037000000ea004180de0035
:101f20000000c8000000c800390278003980ca00eb
:101f300055018000440188004101800020fe2f00ef
:101f40001100b1000d0032005101800054018000e9
:101f5000450180000100df000000fb0012ff2f00a0
:101f60000200e1004180c80004003a004101800005
:101f70000101df000201fb00000041005401880064
:101f800045018800800078000008a30005003200a9
:101f90004180de000080c8001000b0000080c80052
:101fa000030037004180de000080c8000080c800c8
:101fb000540180001381c200010078000008a300d2
:101fc000060032000000ea004180de000080c80008
:101fd0001000b0000080c800040037000000ea00d4
:101fe0004180de000080c8000080c8000000cb00f7
:101ff00011018000011c78002800cc0004012000a1
:10200000050020001281c300440188000030cb008d
:10201000210180000100e00001003d00048cbe00b1
:102020001281c3004800b0004200f9004400f900ea
:102030003400f9004f06be004f05be004f04be003d
:1020400000000600889fbe008a9fbe008c9fbe00d5
:102050003400f8004400f800670e200027028800d2
:1020600000047800810478004111de001200b10004
:10207000b90278000280080005000000180278000c
:102080001301c0003800cc00180278005312c000c1
:102090003800cc004400f9003400f9004f06be00bf
:1020a0004f05be004f04be0000000600889fbe0022
:1020b0008a9fbe008c9fbe003400f8004400f800e8
:1020c000670e2000270288000004780000067800d0
:1020d0002100b10038007800800178000000e000a5
:1020e00001003d008001ea00010278001400b00008
:1020f0000180080007000000380078000000e000c0
:1021000001003d000000ea000300e100010034008e
:1021100080017800000000000300df000000fb00e9
:102120000300e00001003a00000020000000ea0087
:102130000200500080017800000178001200b00019
:102140001281c3000000ea0015002000550188003c
:102150000280c80004800800030000001c00ca00c0
:102160000000cb000000c8003c00cc000300780059
:102170004400f9003400f9004f06be004f05be00d0
:102180004f04be0000000600889fbe008a9fbe006c
:102190008c9fbe003400f8004400f800670e200059
:1021a00027028800000478001100b10002007800c6
:1021b0000201ea001200b000090020001aff2f00ff
:1021c0000a10e10002003c0019ff2f000901510034
:1021d0001281c30015002000550188000980c80045
:1021e0000280c800090020006f00e10002003500f5
:1021f000f90020000900500000000000000000006d
:1022000001800800040000001800ca000000cb0094
:102210000900c8000000c8003800cc004400f900e4
:102220003400f9004f06be004f05be004f04be004b
:1022300000000600889fbe008a9fbe008c9fbe00e3
:102240003400f8004400f800670e200027028800e0
:102250000005780001047800830478008403780086
:1022600085017800038353000603e9000680080017
:10227000020000001a00ca003800c9003a00cc0071
:1022800080057800411add008b05420001047800ca
:1022900006800800010000003b00ca003800cc00a6
:1022a00064662600000578008205780089027800bf
:1022b0001301c0003a00c9003b00cc00250180009a
:1022c0001281c30001002800410188004e0008006f
:1022d000040000001301c0000000cb003a00c90058
:1022e0001b00cc00bb0278004400f9003400f90068
:1022f0004f06be004f05be004f04be0000000600a2
:10230000889fbe008a9fbe008c9fbe004400f800dc
:10231000070f2000270288003400f80007f02f0084
:102320000338e10004003200270280004700b300b8
:1023300027028800a3018800811f7800190020006f
:10234000804cdd0013002000020478008006780035
:102350008904d100424edd00010578000302e90046
:1023600004800800170000008a0546004218dd00be
:102370000902e90004800800100000004620c300a4
:102380003b025200df35c100080440001381c20047
:10239000ab825200264dc5003e85c400bb00cd0077
:1023a000bb80cd003a00ca002a80ca000700c900dd
:1023b0000580c900ba00cd00ba80cd000000000041
:1023c0000a054600020478008301d0008d06e9006a
:1023d000dfff3c004f0078003400f9004400f900b2
:1023e0004f06be004f05be004f04be0000000600b1
:1023f0004600f8005000f800022020003202880059
:1024000002002800130020008019dd000281710005
:102410008202880001007800010178002600200077
:10242000470020008301e900038008000700000046
:102430000110e100040034001102be00920878008f
:10244000e2307b000489be008780400012197800ca
:102450005000f9004600f90000000600889fbe0009
:102460008a9fbe008c9fbe003400f8004400f80034
:102470000800fa00670e2000270288000005780097
:102480008005780002047800a301880081017800ab
:10249000c219de001300b1004d00200001067800d3
:1024a0002c00b1004166dd001a0078009a0090000f
:1024b000011d400001155000880478000a8546007f
:1024c0008b0546000884460089044600ecff2f0077
:1024d0008f0678002d00b100038008002200000064
:1024e0003b0078001a025000ba004000810e7800cc
:1024f0002b0078001a0340002a00100080367e006e
:10250000b8037800d311c6005250c0001d80ca0025
:102510000000cb00ba00cd00d331c0005232c6005b
:102520006de0ca000000cb00aa00cd00d313c600a6
:102530005212c0001d80ca000000cb00bb00cd00bd
:10254000d333c0000010cb001201c6006de0ca00fa
:102550000090cb000000cb00ab00cd004a00b000e3
:102560004b00b1004800b0004900b1000080fa0003
:102570004400f9003400f9004f06be004f05be00cc
:102580004f04be0000000600889fbe008a9fbe0068
:102590008c9fbe003400f8004400f8000800fa00e8
:1025a000670e20002702880000057800800578006b
:1025b00002047800a301880081017800c219de00be
:1025c0001300b1004d002000010678002c00b1007e
:1025d0004166dd001a0078009a0090000101400079
:1025e0004191de00021d7800010150004191de00a2
:1025f00002157800880478000a8546008b0546009d
:102600000884460089044600ecff2f008f067800fe
:102610002d00b10003800800240000003b0078007a
:102620001a0250000402ea00ba0040008106980035
:102630002b0078001a0340000603ea002a0010006d
:1026400080367e00b8037800d311c6005210c00057
:102650001d80ca000000cb00ba00cd00d331c000fd
:102660005272c6006de0ca000000cb00aa00cd0087
:10267000d313c6005252c0001d80ca000000cb0018
:10268000bb00cd00d333c0001201c6000010cb0048
:102690006de0ca000090cb000000cb00ab00cd0085
:1026a0004a00b0004b00b1004800b0004900b10042
:1026b0000080fa004400f9003400f9004f06be0023
:1026c0004f05be004f04be0000000600811f7800c9
:1026d000801f7800811f78007c130200000000003a
:1026e000cf0078004f007800f811020000000000d1
:1026f0004f00780000000600889fbe008a9fbe0041
:102700008c9fbe004400f800070f200027028800bd
:102710003400f80007f02f000338e1000400320015
:10272000270280004700b30027028800a301880029
:10273000811f780019002000804cdd00130020006c
:1027400002047800800678008904d100424edd0042
:10275000010578000302e90004800800170000006a
:102760008a0546004218dd000902e90004800800dd
:10277000100000004620c3003b025200df35c100bc
:10278000080440001381c200ab825200264dc500f0
:102790003e85c4003b00cd003b80cd003a00ca001e
:1027a0002a80ca000700c9000580c9003a00cd0090
:1027b0003a80cd00000000000a05460002047800bf
:1027c0008301d0008d06e900dfff3c004f00780058
:1027d0003400f9004400f9004f06be004f05be006a
:0827e0004f04be0000000600da
:020000040000fa
:0200000401f009
:04000800ffff0000f6
:020000040000fa
:0200000401f009
:04000c00f8ff0000f9
:020000040000fa
:0200000401f009
:0400100079ff000074
:020000040000fa
:0200000401f009
:040014007fff00006a
:020000040000fa
:1000080090020000900200009002000090020000a0
:100018009002000090020000900200009002000090
:100028009002000090020000900200009002000080
:100038009002000090020000900200009002000070
:100048009002000090020000900200009002000060
:100058009002000090020000900200009002000050
:100068009002000090020000900200009002000040
:100078002623000090020000900200009002000079
:100088009002000090020000900200009002000020
:10009800900200004423000090020000900200003b
:1000a8009002000090020000900200009002000000
:1000b80090020000900200009002000090020000f0
:1000c80090020000900200009002000090020000e0
:1000d80090020000900200009002000090020000d0
:1000e80090020000900200009002000090020000c0
:1000f80090020000622300008023000090020000ac
:10010800900200009002000090020000900200009f
:100118002e1b0000900200009002000090020000d8
:10012800900200009002000090020000900200007f
:10013800900200009002000090020000900200006f
:10014800900200009002000090020000900200005f
:10015800900200009002000090020000900200004f
:10016800900200009002000090020000900200003f
:10017800900200009002000090020000900200002f
:10018800900200009002000090020000900200001f
:10019800900200009002000090020000900200000f
:1001a80090020000900200009002000090020000ff
:1001b80090020000900200009002000090020000ef
:1001c80090020000900200009002000090020000df
:1001d80090020000900200009002000090020000cf
:1001e80090020000900200009002000090020000bf
:0801f8009002000090020000db
:020000040000fa
:10020800900200009002000090020000900200009e
:10021800900200009002000090020000900200008e
:10022800900200009002000090020000900200007e
:10023800900200009002000090020000900200006e
:10024800900200009002000090020000900200005e
:10025800900200009002000090020000900200004e
:10026800900200009002000090020000900200003e
:100278002623000090020000900200009002000077
:10028800900200009002000090020000900200001e
:100298009002000044230000900200009002000039
:1002a80090020000900200009002000090020000fe
:1002b80090020000900200009002000090020000ee
:1002c80090020000900200009002000090020000de
:1002d80090020000900200009002000090020000ce
:1002e80090020000900200009002000090020000be
:1002f80090020000622300008023000090020000aa
:10030800900200009002000090020000900200009d
:100318002e1b0000900200009002000090020000d6
:10032800900200009002000090020000900200007d
:10033800900200009002000090020000900200006d
:10034800900200009002000090020000900200005d
:10035800900200009002000090020000900200004d
:10036800900200009002000090020000900200003d
:10037800900200009002000090020000900200002d
:10038800900200009002000090020000900200001d
:10039800900200009002000090020000900200000d
:1003a80090020000900200009002000090020000fd
:1003b80090020000900200009002000090020000ed
:1003c80090020000900200009002000090020000dd
:1003d80090020000900200009002000090020000cd
:1003e80090020000900200009002000090020000bd
:0803f8009002000090020000d9
:020000040000fa
:1027e800ff7f000000000000627f000074f300001b
:1027f8008a7d000007e700007d7a0000d8da000033
:102808004276000004cf0000e3700000a9c3000076
:102818006e6a0000e3b80000f2620000ccae00006f
:10282800825a00007ea50000345100000e9d000071
:102838001d47000092950000573c00001d8f0000c6
:10284800fc300000be8900002825000083850000b8
:10285800f9180000768200008c0c00009e800000b1
:10286800000000000080000074f300009e8000005b
:1028780007e7000076820000d8da000083850000b0
:1028880004cf0000be890000a9c300001d8f00000e
:10289800e3b8000092950000ccae00000e9d000049
:1028a8007ea500007ea500000e9d0000ccae0000b5
:1028b80092950000e3b800001d8f0000a9c3000036
:1028c800be89000004cf000083850000d8da00002c
:1028d8007682000007e700009e80000074f3000085
:1028e800ff7f000000000000627f00008c0c0000e9
:1028f8008a7d0000f91800007d7a00002825000074
:1029080042760000fc300000e3700000573c0000f5
:102918006e6a00001d470000f2620000345100009a
:10292800825a0000825a000034510000f26200000e
:102938001d4700006e6a0000573c0000e37000006d
:10294800fc30000042760000282500007d7a000057
:10295800f91800008a7d00008c0c0000627f0000de
:1029680000000000ff7f000074f30000627f000099
:1029780007e700008a7d0000d8da00007d7a0000b1
:1029880004cf000042760000a9c30000e3700000f5
:10299800e3b800006e6a0000ccae0000f2620000ee
:1029a8007ea50000825a00000e9d000034510000f0
:1029b800929500001d4700001d8f0000573c000045
:1029c800be890000fc300000838500002825000037
:1029d80076820000f91800009e8000008c0c000030
:1029e800ff7f000000000000d97f0000b8f9000058
:1029f800627f000074f300009d7e000038ed000047
:102a08008a7d000007e700002a7c0000e6e000005d
:102a18007d7a0000d8da000085780000e1d4000053
:102a28004276000004cf0000b673000046c90000db
:102a3800e3700000a9c30000ca6d000032be0000a8
:102a48006e6a0000e3b80000d0660000c0b3000062
:102a5800f2620000ccae0000d75e00000aaa0000b7
:102a6800825a00007ea50000f655000029a100004a
:102a7800345100000e9d0000404c000030990000c9
:102a88001d47000092950000ce41000036920000dc
:102a9800573c00001d8f0000ba3600004a8c000029
:102aa800fc300000be8900001f2b00007b8700005f
:102ab80028250000838500001a1f0000d683000027
:102ac800f918000076820000c81200006381000037
:102ad8008c0c00009e800000480600002780000043
:102ae8000000000000800000b8f900002780000006
:102af80074f300009e80000038ed00006381000040
:102b080007e7000076820000e6e00000d6830000b8
:102b1800d8da000083850000e1d400007b8700003c
:102b280004cf0000be89000046c900004a8c00009e
:102b3800a9c300001d8f000032be000036920000bd
:102b4800e3b8000092950000c0b30000309900007f
:102b5800ccae00000e9d00000aaa000029a10000ca
:102b68007ea500007ea5000029a100000aaa000099
:102b78000e9d0000ccae000030990000c0b30000ec
:102b880092950000e3b800003692000032be0000c3
:102b98001d8f0000a9c300004a8c000046c9000030
:102ba800be89000004cf00007b870000e1d400004c
:102bb80083850000d8da0000d6830000e6e0000034
:102bc8007682000007e700006381000038ed00000e
:102bd8009e80000074f3000027800000b8f9000010
:102be800230000003b010000650300009a06000076
:102bf800c90a0000e20f0000cd150000711c00009a
:102c0800b12300006d2b000083330000d03b00008f
:102c18002f4400007c4c0000925400004e5c0000e1
:102c28008e630000326a00001d70000036750000d7
:102c3800657900009a7c0000c47e0000dc7f0000fb
:102c4800ff7f0000ff7f0000ff7f0000ff7f000084
:102c5800ff7f0000ff7f0000ff7f0000ff7f000074
:102c6800ff7f0000ff7f0000ff7f0000ff7f000064
:102c7800ff7f0000ff7f0000ff7f0000ff7f000054
:102c8800ff7f0000ff7f0000ff7f0000ff7f000044
:102c9800ff7f0000ff7f0000ff7f0000ff7f000034
:102ca800ff7f0000ff7f0000ff7f0000ff7f000024
:102cb800ff7f0000ff7f0000ff7f0000ff7f000014
:102cc800ff7f0000ff7f0000ff7f0000ff7f000004
:102cd800ff7f0000ff7f0000ff7f0000ff7f0000f4
:102ce800ff7f0000ff7f0000ff7f0000ff7f0000e4
:102cf800ff7f0000ff7f0000ff7f0000ff7f0000d4
:102d0800ff7f0000ff7f0000ff7f0000ff7f0000c3
:102d1800ff7f0000ff7f0000ff7f0000ff7f0000b3
:102d2800dc7f0000c47e00009a7c0000657900000a
:102d3800367500001d700000326a00008e630000c6
:102d48004e5c0000925400007c4c00002f440000b0
:102d5800d03b0000833300006d2b0000b12300003e
:102d6800711c0000cd150000e20f0000c90a000028
:102d78009a060000650300003b01000023000000e4
:102d8800020000000300000004000000050000002d
:102d9800060000000700000008000000090000000d
:102da8000a0000000b0000000c0000000d000000ed
:102db8000e000000100000001100000013000000c9
:102dc8001400000016000000170000001a000000a0
:102dd8001b0000001e0000001f0000002300000070
:102de80024000000290000002a0000003000000034
:102df8003100000037000000380000003f000000ec
:102e080001000000010000000100000001000000b6
:102e180001000000010000000100000001000000a6
:102e28000100000001000000010000000100000096
:102e380000000000aa2a000000000000aa2a0000e2
:102e480000000000aa2a00000100000002000000a3
:102e580001000000020000000000000099190000b5
:102e68000000000056150000000000004912000094
:102e780000000000491200000100000003000000eb
:102e8800202000002020000020200000202000003a
:102e9800202000002020000020200000202000002a
:102ea800202000002020000000200000202000003a
:102eb80020200000202000004d69000063720000ff
:102ec8006f63000068690000702000002020000087
:102ed800200000002020000020200000202000000a
:102ee800204e00006f69000073650000202000007c
:102ef80020200000202000002020000000200000ea
:102f08002020000020200000202000005375000031
:102f1800707000007265000073730000696f000034
:102f28006e2000002000000020200000202000006b
:102f38002020000020440000656d00006f20000084
:102f4800763600002e3000002020000020200000ef
:102f580000000000007800002d7800005a7800007a
:102f680084780000ae780000d6780000fe78000073
:102f7800247900004a7900006e79000092790000f7
:102f8800b4790000d6790000f8790000187a0000ba
:102f9800387a0000577a0000757a0000937a0000aa
:102fa800b17a0000cd7a0000e97a0000057b0000c4
:102fb800207b00003b7b0000557b00006f7b0000fe
:102fc800887b0000a17b0000b97b0000d17b00005a
:102fd800e97b00004e6f0000697300006520000067
:102fe8005375000070700000726500007373000074
:102ff800696f00006e200000202000002000000003
:103008004f6e00004f660000662000005357000016
:10301800312000003a200000496e00006974000069
:103028002053000057340000000000006b07000028
:103038002af100006b07000081e10000950e0000f6
:020000040000fa
:103048000600fa00100798002107980000042000e5
:1030580000148800f00e2000101488008000200062
:103068002014880010002000601488001000200040
:10307800401488000000eb00000f780008003700bb
:103088001e00780000004000800078002e009000ac
:10309800808040000000eb00800878001e0fe800e8
:1030a800f01320009e0f1000f5ff34001e00900062
:1030b800407a8800407a8000ae00900001087800cd
:1030c800417a80002e009000000ab000900098001d
:1030d800417a80002e0090000014b000a0009800f3
:1030e800417a80002e009000001eb000b0009800c9
:1030f800dec2a900e2c2a8008b80a900210c200032
:103108009140780080cfb30000c060000024a00088
:10311800c2e0b7009b80a8000080fa00000006000b
:103128000600fa0010079800210798009e009000fa
:103138000000eb00900898001e0090001008900016
:10314800800078000130a0001e009000110898004f
:103158001e00900010089000800078000140a00038
:103168001e009000110898001e00900010007800c2
:10317800800078001e009000710098001e009000ea
:1031880020009000800078001e0090000108980040
:103198009e0090000000eb00a00898009e009000a0
:1031a80000602200b00898009e0090000000eb002c
:1031b800c00098009e009000f0042000d000980005
:1031c8009e009000f0042000e00098001e0090008f
:1031d80000089000100078000000a000c0148800cb
:1031e800e2c2a8000000eb00000f780002003700e0
:1031f800e2c2a9001e0fe800400620009e0f100042
:10320800fbff3400e2c2a80081e2a800ae009000f3
:103218008001200080087800ae0090000000eb00dc
:1032280090009800ae00900080012000a000980057
:10323800ae009000f01f2000b0009800ae00900093
:10324800a0062000c0009800ae009000e005200015
:10325800d0009800ae009000f0052000e000980033
:10326800ae0090000000eb00f0009800ae00900067
:1032780000082000800878002e019000011020002e
:103288001e009000bb0007002e0090006401400063
:10329800013020001e009000b60007002e009000ac
:1032a80066014000014020001e009000b1000700a8
:1032b8002e0090000081e800012020001e009000f0
:1032c800ac0007002e00900068014000015020006b
:1032d8001e009000a70007002e0090006a01400021
:1032e800016020001e009000a20007002e00900040
:1032f8006c014000017020001e0090009d00070036
:103308002e0090006e014000019020001e009000e9
:1033180098000700ae009000800120008008780027
:103328002e019000011020001e009000910007005f
:103338000080fa00000006000a00fa002007980042
:1033480031079800420798002e009000100890005e
:103358004700de000000a200610060000004e000f9
:10336800040032002e009000900090001107980091
:10337800030037002e009000900078001107980095
:10338800ce00900000052000808f5000020034001d
:1033980000052000400798000000eb00000f7800af
:1033a8000d0037001e007800000040008000780003
:1033b8003e009000008140001e00780000004000a0
:1033c800800078001e009000008040001000780007
:1033d800000978001e0fe8004e0090009e0f1000b4
:1033e800f0ff35000400fc002e009000100890004b
:1033f800800078000130a0002e009000110898008d
:103408000000fc000080fa00000006000a00fa0034
:103418002007980031079800420798002e00900076
:10342800100890004700de000000a2006100600064
:103438000004e000040032002e009000b00090006c
:1034480011079800030037002e009000a00090009c
:1034580011079800ce00900000052000808f5000d2
:103468000200340000052000400798002e0090005c
:10347800ce009000610098000000eb00000f78007b
:103488000d0037001e007800000040008000780022
:103498001e009000008140001e00780000004000df
:1034a800800078003e009000008040001000780006
:1034b800000978001e0fe8004e0090009e0f1000d3
:1034c800f0ff35000400fc002e009000100890006a
:1034d800800078000140a0002e009000110898009c
:1034e8000000fc000080fa00000006000400fa005a
:1034f800000f78001e007800100890004400de00dd
:103508000000a200610060000004e0000300320037
:103518000000eb00100798000200370010002000a0
:10352800100798001e0090000080fa0000000600b6
:103538000400fa00000f78001e00780010089000c0
:103548004300de000000a200610060000004e0000b
:10355800030032000000eb0010079800020037005b
:1035680010002000100798001e0090000080fa004c
:10357800000006000600fa00000f78001107980006
:1035880022079800407a8000100890000000d100bf
:103598000000a200610060000004e000f9ff3a00aa
:1035a800407a8000100890004600de00610060004c
:1035b8000004e000faff3a001e0078009e00900028
:1035c800310898001e0090004d00de006100600088
:1035d8000004e000040032009e0078000000eb00c8
:1035e800a0089800040037002e0090009000780092
:1035f8001e007800210898001e00780090089000ae
:1036080000042000808070001e00780011089800d7
:103618001e0090004d00de00610060000004e00024
:103628000a0032001e007800100890004600de00f4
:10363800610060000004e000faff3a002e009000ec
:103648009e007800a1089000010878000080fa0028
:1036580000000600809fbe00821f78000800fa0064
:1036680000602200200798000000eb001007980077
:103678008b80a900427a8000407a800090089000f0
:10368800000220000080680010099800407a80003d
:1036980090089000310798003e0090004500de0039
:1036a800610060000004e0003800320080148000ef
:1036b800000f78003e0090000000d1000000a2003a
:1036c800610060000004e000070032001e00e00016
:1036d80005003200417a8000407a8000100890008e
:1036e8000010a000900898003e0090004600de0000
:1036f800610060000004e0001f0032003e009000fe
:10370800610060000004e00010003200407a800090
:103718009e00780021089800427a8000407a800054
:1037280090089000f0fb2f000080600010099800be
:10373800427a8000407a800090089000e0ff2f00d5
:1037480000806000100998000b003700407a800064
:10375800b008900021079800407a8000a0089000e7
:1037680011079800417a8000407a80001008900084
:103778000000a00090089800ae0090001e00900085
:1037880000807000c014880015003700407a80005f
:10379800f0009000407a8000400090000000400057
:1037a800808040008014800080087800407a800083
:1037b80080089000407a800040009000000040009f
:1037c80000804000100078000000a000c0148800ad
:1037d800417a8000410090000000e800c000980095
:1037e800407a8000c0009000407a8000500090002d
:1037f800808f500030003a00427a8000407a800082
:1038080090089000000820000080680010099800c7
:10381800407a8000100890004700de0061006000d8
:103828000004e00009003200417a8000407a8000fc
:1038380010009000f0009800417a8000407a8000e3
:10384800300090008008980008003700417a800016
:10385800407a800010007800f0009800417a8000db
:10386800407a80002000900080089800417a80000b
:103878000000eb00c0009800417a8000407a800088
:1038880060009000d0009800427a8000407a800062
:103898009008900070ff2f000080600010099800c9
:1038a800427a8000407a800090089000f0fe2f0055
:1038b80000806000100998000080fa004f0178002d
:1038c8004f00be00004006000c00fa0030079800c8
:1038d80041079800520798000000eb001007980075
:1038e800a07980000000e800a0798800a079800015
:1038f800e50f50003e0034000000eb00a07988007e
:103908000000eb0020079800120037002e009000fe
:1039180000004000800078003e00900000804000d9
:1039280010007800000f78001e00e00001003d0044
:103938001e0fea001e0090009e0f100002003400c7
:103948001e007800100798002e0090000000e80084
:1039580020079800ae0090004e009000808f500025
:10396800eaff35001e0090004980de00100798002d
:10397800317a80001e009000810f500004003d0045
:10398800307a800063005000307a880002003700e7
:103998001e009000307a8800317a8000307a8000ea
:1039a8000001eb00370107009e009000c0032000d3
:1039b800808f5000030034005a010700a000200047
:1039c800207a8800207a80000000e000040034009b
:1039d800207a80000000e900207a88005101070061
:1039e8005e0090000000e000010032006e01070058
:1039f8000080fa00000006001a00fa00300f980054
:103a0800410f98000e80e800417429001300090056
:103a1800315878004001b1000000eb00000f780039
:103a28004e089000e10f50001f003a008e80e80019
:103a3800f0c4b300804878008e80e800e0c6b30088
:103a4800904098008e80e80000c2b300a040980023
:103a58008e80e800a0c3b300b04098008e80e800d4
:103a680000c2b300c04098008e80e80000c2b300d6
:103a7800d04098008e80e80010c3b300e040980062
:103a88008e80e80050c3b300f04098008e80e800b4
:103a980040c6b300804898008e80e80020c4b30078
:103aa80090489800230037008e80e800f0c4b300e7
:103ab800804878008e80e80060c6b3009040980087
:103ac8008e80e80060c6b300a04098008e80e800b1
:103ad800a0c3b300b04098008e80e80000c2b300d5
:103ae800c04098008e80e80000c2b300d040980023
:103af8008e80e80010c3b300e04098008e80e80094
:103b080050c3b300f04098008e80e80040c6b30070
:103b1800804898008e80e80020c4b3009048980040
:103b2800040037001e0fe8003e0890006a005000ad
:103b3800300f98003e089000e90f5000f9ff3c0054
:103b48001e00780002c3b300824040000e80e800e7
:103b5800614098003e08900002c3b30082404000d4
:103b68000e80e800714098000e80e80021002000d7
:103b7800b10007000080fa00000006000600fa0005
:103b880020079800700107008000eb00907529005d
:103b9800a900070011002000e0762900a600070010
:103ba8002100200030782900a30007003100200000
:103bb80080792900a00007000000eb00000f7800c2
:103bc8008000eb002e009000630107002e0090009b
:103bd800100798000a0037009e00780040eb20008c
:103be80000804000104078000000fb0066010700dc
:103bf8001e0fe8001e0090000000e8001007980063
:103c08002e00900001022000808040001e009000dd
:103c1800808f5000f0ff3c000000eb00000f7800a0
:103c2800110020002e0090004b0107002e0090008c
:103c3800100798000a0037009e00780040ed200029
:103c480000804000104078000000fb004e01070093
:103c58001e0fe8001e0090000000e8001007980002
:103c68002e00900001022000808040001e0090007d
:103c7800808f5000f0ff3c000000eb00000f780040
:103c8800210020002e009000330107002e00900034
:103c9800100798000a0037009e00780040ef2000c7
:103ca80000804000104078000000fb00360107004b
:103cb8001e0fe8001e0090000000e80010079800a2
:103cc8002e00900001022000808040001e0090001d
:103cd800808f5000f0ff3c000000eb00000f7800e0
:103ce800310020002e0090001b0107002e009000dc
:103cf800100798000a0037009e00780040f1200065
:103d080000804000104078000000fb001e01070002
:103d18001e0fe8001e0090000000e8001007980041
:103d28002e00900001022000808040001e009000bc
:103d3800808f5000f0ff3c001b0107000000eb00e3
:103d4800000f7800160037008000eb001e00780096
:103d5800010107000000eb000b0107001100200023
:103d68001e007800fc0007000000eb0006010700b9
:103d7800210020001e007800f70007000000eb007b
:103d880001010700310020001e007800f200070042
:103d98000000eb00fc0007000a0107001e0fe80006
:103da800800720009e0f1000e7ff34000080fa0013
:103db800000006000020200040178800f0082f00af
:103dc800201788006022ef000001200010138800ef
:103dd8006322a9006302a90062c2a90062a2a80026
:103de80060c2a90061e2a800e922a900000006005b
:103df800811f780080007800800a2000101f0200d0
:103e08000000000001007800101f02000000000000
:103e1800cf00780000000600811f780060c2a9006a
:103e28006022af00feff3700411380004013880076
:103e3800cf007800000006000002780081027800b8
:103e4800500c2000101f020000000000000020009d
:103e5800101f02000000000005007800101f02007b
:103e6800000000000000eb00130008000300000041
:103e780034407800fc1e0200000000000000000032
:103e880000000600820278000001780081017800b5
:103e9800f61f0200000000008200780044002000a5
:103ea8006e1f02000000000083007800240020003c
:103eb8006e1f0200000000000500e00004003a0048
:103ec80083007800340020006e1f0200000000000c
:103ed80000000600700d2000101f02000000000006
:103ee80000002000101f02000000000004007800fd
:103ef800101f020000000000a00d2000101f02008b
:103f08000000000001007800101f020000000000ff
:103f180004007800101f02000000000000000000ec
:103f28000000060080007800500c2000101f0200de
:103f380000000000d0002000101f02000000000058
:103f480030002000101f0200000000003004200094
:103f5800fc1e020000000000c0042000fc1e02003d
:103f68000000000090042000fc1e02000000000079
:103f780000052000fc1e02000000000000052000d3
:103f8800fc1e02000000000050042000fc1e02007d
:103f98000000000040042000fc1e02000000000099
:103fa800000000000000060080007800500c20008f
:103fb800101f020000000000b0002000101f0200c7
:103fc8000000000030002000101f02000000000068
:103fd800a0022000fc1e02000000000000000000fb
:103fe80000000600900a2000101f020000000000d8
:103ff80030002000101f020000000000700d20009b
:10400800101f02000000000000002000101f020026
:104018000000000000002000101f02000000000047
:10402800a00d2000101f0200000000000004200066
:10403800101f02000000000000002000101f0200f6
:1040480000000000a00d2000101f0200000000006a
:1040580000042000101f0200000000006000200083
:10406800101f020000000000a00d2000101f020019
:104078000000000000002000101f020000000000e7
:1040880060002000101f020000000000a00d2000aa
:10409800101f02000000000000002000101f020096
:1040a8000000000000002000101f020000000000b7
:1040b800800d2000101f020000000000c003200037
:1040c800101f02000000000050002000101f020016
:1040d80000000000800d2000101f020000000000fa
:1040e800c0032000101f0200000000001000200084
:1040f800101f020000000000800d2000101f0200a9
:1041080000000000c0002000101f02000000000096
:1041180050002000101f020000000000800d200049
:10412800101f020000000000c0002000101f020045
:104138000000000010002000101f02000000000016
:10414800000000000000060020082000101f0200e8
:1041580000000000000006000101780080007800df
:10416800b00d2000101f02000000000001007800c0
:10417800101f02000000000002007800101f02005b
:10418800000000000000060080007800c00b20003e
:10419800101f02000000000001007800101f02003c
:1041a800000000000000060001202000f0ff2f00a2
:1041b8000000e900feff3a008100e900fbff3a0039
:1041c8000000060001022000005020000000e90065
:1041d800feff3a008100e900fbff3a0000000600fc
:1041e8000000fa0090022000303a880044c7bf005f
:1041f800f043b20044e7b7004174200091407800d2
:1042080000ceb30000c0600044e7b7000000eb0038
:10421800403a88003200200081072000a0092000d1
:1042280033742000814978008049780082497800f9
:104238001200200061042000700520002374200073
:1042480081497800804978008249780043c7bf00d7
:1042580002c7b3008240600000c3b30080cf5000a3
:10426800faff3a0042c7bf000042b2000004e00073
:10427800fcff320020f42000920007000000eb0051
:10428800807588000000eb009075880002c0270048
:1042980001ba200000802000e1f007000080200023
:1042a8003ef1070070758800c2fe0700100020006c
:1042b80032fe07008000eb00e07e2900defe0700ea
:1042c8001100200040802900dbfe07008175800076
:1042d80070758000c8fd070042ff07000001eb0071
:1042e8000105200000b0200077fd0700c1c22000b2
:1042f80040c0200052fb0700c1c1200040c0200080
:1043080087fb07000000370040c0200088fc07003a
:104318000000e000fcff3a000205200001b0200088
:1043280040c0200004fc07000080200040f1070086
:10433800000178000105200000b0200062fd0700a0
:10434800907580000000e0000a00320002c02700db
:1043580001ba200000802000b1f0070071758000cc
:104368000080200071f007000000eb0090758800c5
:10437800d662a800007a8000e10f500008003a00d9
:1043880081758000707580009bfd07000000eb00c0
:10439800007a8800717580000080200063f00700b3
:1043a8008275800001b0200000802000cff0070057
:1043b80040c020004dfc07000000e000fcff3a0070
:1043c8000205200001b0200040c020000ffc0700bb
:1043d800107a80000000e00003003400107a8000aa
:1043e8000000e900107a880062000700e10f500021
:1043f80010003a00d6c2bf00614060000004a2006d
:104408006140600061416000612d200091407800aa
:10441800e0cfb30000c0600002407000d6e2b700f1
:10442800807580000000a2008075880010002000c0
:10443800007a88005c000700e10f50000b003a008a
:10444800707580000000e000040034007075800082
:104458000000e90070758800020037000000eb00da
:104468007075880010002000007a88005b00070043
:10447800e10f50000c003a0071758000b002200076
:10448800808f500004003c00707580000000e80038
:104498007075880002003700c0022000707588001f
:1044a80010002000007a880059000700e10f500032
:1044b80095ff3a001000200090758800d662a90088
:1044c80091ff37000200fa00000f78000080eb002f
:1044d800601988000080eb00501988000080eb000c
:1044e800601988000080eb00601b8800c182a8006a
:1044f800c1a2a800c1c2a800c1e2a800d202a900b6
:10450800d222a900d242a900d262a900d602a800ec
:10451800d622a800d642a800d662a8001e007800bd
:10452800b07988000000eb00c07988000000eb003b
:10453800d07988000000eb00e07988000000eb00eb
:10454800f0798800e0012000100488008680a90026
:104558009680a80087a0a90097a0a8008aa0a90013
:104568009aa0a8008ac0a9009ac0a8000080fa00f2
:10457800000006000200fa000000eb00000f7800bf
:10458800c0798000e10f500004003a0010002000bc
:10459800000f78000000eb00c07988001e0078004a
:1045a8000080fa00000006000200fa000000eb009c
:1045b800000f7800d0798000e10f500004003a0025
:1045c80010002000000f78000000eb00d079880070
:1045d8001e0078000080fa00000006000200fa00c1
:1045e8000000eb00000f7800e0798000e10f500038
:1045f80004003a0010002000000f78000000eb00d3
:10460800e07988001e0078000080fa0000000600ab
:104618000200fa000000eb00000f7800f07980003b
:10462800e10f500004003a0010002000000f78004d
:104638000000eb00f07988001e0078000080fa0086
:1046480000000600809fbe000000fa008680a900d6
:10465800b0798000100078000000e00005003a0002
:10466800b079800091012000010878001000200036
:10467800c07988000080fa004f00be0000400600a4
:10468800809fbe000000fa0087a0a900b0798000d2
:10469800100078000000e00005003a00b0798000c2
:1046a800910120000108780010002000d0798800ce
:1046b8000080fa004f00be0000400600809fbe0048
:1046c8000000fa008aa0a900b079800010007800e4
:1046d8000000e00005003a00b07980009101200058
:1046e8000108780010002000e07988000080fa00b6
:1046f8004f00be0000400600809fbe000000fa0088
:104708008ac0a900b0798000100078000000e0009d
:1047180005003a00b0798000910120000108780076
:1047280010002000f07988000080fa004f00be00d9
:044738000040060037
:020000040000fa
:10473c00400f000004000000020000000000000018
:10474c0000000000040c0000b0020000000000009b
:10475c00000b0000a000000000000000000800009a
:10476c000003000000000000a00b0000640000002b
:10477c0000000000007c00000001000000000000b0
:10478c00480f00000200000000000000b40e000002
:10479c00820000000200000000008000c0e0f00079
:1047ac00f8fcfc007e3e1e003fffff00ffff7f0079
:1047bc003e3e7c00f8f0e000fcc2bd0095a9420032
:1047cc003c00f000feffff007f1f0f0003038e0074
:1047dc00f8e0c000000307001e78f000c080000065
:1047ec0003071f003f7fff00fefcf000000f0700d7
:1047fc0001008000e0f0fc00feffff00ffffff0067
:10480c00fffcf000e08000000387de00fcf0e0001d
:10481c0080000100070f00000000000003070f00dc
:10482c001f3f3f007f7f7f007fffff00ffffff00e8
:10483c00ff7f7e007f3f3f001f0f0700030000003b
:10484c000000050000000000440f00000400000000
:10485c0000000000360f00000a00000000000000fd
:04486c000000000048
:00000001FF
