:020000040000fa
:080000000002040000000000f2
:020000040000fa
:100400006fb321000ebf2d000e0188000000000018
:100410000c00070020712100010020000f000700e0
:10042000000020000000e000020032000000020096
:10043000000000007c1a0200000000000040da000a
:100440000000fe00000020000000e000020032007a
:10045000000020009001880000000600a102880032
:10046000800078000000eb001a003700e2804000b6
:1004700054a0b4009101ba00e280400054a0b4003e
:100480009102ba00e280400054a0b4000002eb00e8
:10049000472bde00f507b200a6018800602ce100c2
:1004a00008003a000049eb000201e80002003900b0
:1004b0003420ec0002f0a0008301e900f9ff3e00c7
:1004c000040037006128e100010032000082eb00e7
:1004d000040007001101ba000200e000e3ff3a0047
:1004e0000000060004d0a300e20f49001c00390000
:1004f000810278003549ba000201e80002003900a3
:100500003420ec0002f0a0008301e9000f0032006b
:100510002549ba000201e800020039003420ec004d
:1005200002f0a0008301e900080032000400e000ae
:100530000600320015c9ba000201e80002003900c5
:100540003420ec0002f0a0008301e9008180e80083
:1005500054a0b4000300e000e2ff3a0000000600ef
:100560009102ba00055978008301e900f7ff3200d3
:10057000c82ade00055978008301e900f3ff320044
:100580000400e000f1ff320011d9ba00eeff37009d
:100590000040da000000fe005190990000000600c3
:1005a00071b89a000000060000017800f0052000f4
:1005b000808f50000d003e000080eb000100e00045
:1005c00002003c0060919900000006000000eb0072
:1005d0000000e800808f5000fdff3a0000fe2f0071
:1005e0008008b80060919900000006000000060035
:1005f000800178000100e00004003a0012002000b1
:10060000b291990082999900000006008200e900e9
:1006100030062000808f5000fbff3e00b291990011
:1006200082999900f8ff3700129899002398990051
:1006300000000600ef8f500001003e00719099000d
:10064000000006000001780040062000808f500066
:1006500008003200c0122000808f50000a003200d3
:100660006066200040099900909927005009990080
:1006700000000600c0cc200040099900303327005c
:10068000500999000000060030332000400999000d
:10069000c0cc27005009990000000600a000fa0015
:1006a000889fbe008a1f78008004780001047800cb
:1006b000020578000200e0001600320079b99200cd
:1006c000880078000900780058040200000000004b
:1006d0000a00e000040032004f0578004f04be001d
:1006e0000080fa0000000600020520008800780063
:1006f000a0f52f000f0040003405020000000000ac
:100700004f0578004f04be000080fa00000006008c
:10071000f5ff370002052000a1f52f008f80400073
:1007200008007800340502000000000079b992004a
:1007300088007800090078005804020000000000da
:100740000a00e000e4ff3a00e7ff37006090910004
:100750000000e9008000eb00e10f400004003200df
:100760008100e8000002b000e10f4000fcff3a0009
:1007700001007800000006000098910000000600cb
:100780007090910000000600400991004106200091
:10079000c0cc2000800f510005003200c1122000a3
:1007a00030332000800f510001003200810c200006
:1007b00001007800000006000001780020989100f8
:1007c000cf80de00c000dd00000020001299910003
:1007d000030020000200700083807000000006000b
:1007e0004090910000000600020520006c05040006
:1007f00000000000889fbe008a1f780080047800f7
:100800000000eb0000057800033020008a347800f7
:100810000080e800830f5000fcff3a001800200021
:10082000880c7800f0ff2700b0349800c03498009e
:10083000d1949900f2bc9a00f100200009007800e0
:1008400059ff070062002000880078000900780046
:1008500067ff070072912100d30120000900780092
:1008600071ff0700811b2000898040000a0078008a
:10087000020a20008098eb000000e800820f500080
:10088000fcff3a000000eb00b09c99002100200022
:100890000900780067ff0700810c2000090078003c
:1008a00068ff07004f0578004f04be0000000600f7
:1008b0001000fa00000f7800110798002207980036
:1008c0001e007800700798007e009000e019b000cc
:1008d00006052000800278001e029000a279210007
:1008e00040792100889fbe008a9fbe008c9fbe0079
:1008f0004400f800270e200027028800000478003a
:1009000082047800040578008405780005067800e4
:10091000060078001000b1002900b0000080080037
:100920003200000000000000000000000400210070
:10093000ba03ca001501800026018000c12ade002a
:100940001301c0004f00c800d203c100ac029000e8
:100950003c039000c12ade001381c0004f80c80014
:100960005282c1000030cb008c0390001c03900029
:1009700027069800c13bde001381c2004f80c800eb
:100980001281c1000030cb003c0390001c0290009b
:1009900034069800280290001381c0004f80c800e0
:1009a0001281c1001c0390007d00c800140180006a
:1009b000041e78002c00cc00180290001301c20025
:1009c0004f00c8001200c1000000cb008c03900053
:1009d0001c039000c13bde001381c2004f80c800a1
:1009e0001281c1000000cb007600c8003b00cd00a2
:1009f0004400f9004f06be004f05be004f04be0084
:100a00002e0190009e0090001e0078009d000700bf
:100a1000010520001e009000889fbe008a9fbe0036
:100a20008c9fbe004400f800270e2000270288009b
:100a3000000478008100e900018008000300000044
:100a400000000000000000001800ca00b807cc0039
:100a50004400f9004f06be004f05be004f04be0023
:100a60000080fa00000006000201e900028009008f
:100a7000b0187800000006004400f800010f2000c4
:100a800021028800c1112000008040001281c300b3
:100a90000f000800040000001201c30030027800bb
:100aa0003000ca00140188000080cb006001800083
:100ab000010020000080500003003400f0ff2f00f0
:100ac000f1ff2f000200370051018000400180003b
:100ad0004400f900000006004400f800881f780078
:100ae000891f78004400a9004420a80000000000ed
:100af00000000000000478001200b10082047800b9
:100b00001201c3000980080003000000000000007b
:100b100000000000380278001001f00001047800a5
:100b200002002000210180000100e00005003a00e1
:100b300000ff2f00110180000101df000201fb0016
:100b4000020037000100df000000fb0082004000cf
:100b5000798140006f10e10002003c000200c800f3
:100b600005003700f30020000300c80014ff2f0029
:100b7000840141000300c80012018000f30120003d
:100b800002826100437521004122dd000000000067
:100b900063007a008100ea001281c30041018800ed
:100ba0007680c80041018000010250004505260002
:100bb0001301c0004100c8001281c3000980080071
:100bc0000300000000000000000000003802780070
:100bd0001081f00002002000510180000100e000bf
:100be00005003a0000ff2f00410180000101df00f5
:100bf0000201fb00020037000100df000000fb00e3
:100c000082004000798140006f10e10002003c004a
:100c10000280c80005003700f30020000380c800f0
:100c200014ff2f00840141000380c80042018000ae
:100c3000f301200002826100437521004122dd00a2
:100c40000000000063007a008100ea001281c30006
:100c5000410188007680c8004101800001025000f7
:100c6000450526001381c0004180c8000030cb003c
:100c70008003cd00cf0478004f0478004400f900d1
:100c8000000006002e00fa000007980011079800e7
:100c90002207980000002000300798000e00900006
:100ca000601798006e10900050909100200f9800ef
:100cb000ae089000410798002e0890000004b00094
:100cc000200f98002e099000620798002e089000cf
:100cd0000002b000200f9800ae019000530798006a
:100ce000055021005e029000ee11900022002000cd
:100cf000010520001e009000889fbe008a9fbe0054
:100d00008c9fbe004400f800270e200027028800b8
:100d10000004780000067800830478000405780059
:100d200085057800000378002100b10038007800c4
:100d3000800178000000e00001003d008001ea0031
:100d4000010278001400b0000180080009000000d2
:100d50000000000000000000380078000000e00003
:100d600001003d000000ea000300e1000100340042
:100d700080017800000000000300df000000fb009d
:100d80000300e00001003a00000020000000ea003b
:100d90000200500080017800000178001200b000cd
:100da0001281c3000000ea001500200055018800f0
:100db0000280c80004800800050000000000000058
:100dc000000000001c00ca000000cb000000c800aa
:100dd0003c00cc0003007800e98891000904780009
:100de00001015000880eb000e08c99000a067800de
:100df0001281c3000200ea001200b00015002000ba
:100e0000550188000280c800170008000500000096
:100e100000000000000000003800ca000000cb0005
:100e20000000c8003c00cc00090478002800b00095
:100e30001800ca000000cb000000c8001800cc0059
:100e4000a4992900980278001301c00006047800d4
:100e50001880ca000000cb003c00cc00b80278002b
:100e60004e00080004000000000000000000000028
:100e70001800ca005210c0003c00cc0006047800e4
:100e800078889000900498001201c30017000900b0
:100e90003c00cc000a0678000c0ab0000904780077
:100ea000880eb000170008000300000000000000da
:100eb000000000003c00ca003800cc008a04780022
:100ec0000b0478004604c30067000800030000001c
:100ed00000000000000000004704c0003900cd0001
:100ee000030078004400f9004f06be004f05be0025
:100ef0004f04be00600f9800110020005e009000bb
:100f0000260307006e10900014002000900f1200be
:100f100005003a00f0ff2700000f980000002000b5
:100f2000100f98000400370060662400000f98003e
:100f300090992300100f98006e109000c1112000ae
:100f400080804000ce129000851f7800076121004c
:100f5000055d21006e0a90009e0990000e09900028
:100f60005e009000889fbe008a9fbe008c9fbe00de
:100f70004400f8004200f8002a0e20002a028800ef
:100f80000005780081057800050478008704780062
:100f90008f0678004db6970002037800830378002f
:100fa00084017800c119dd007300b1000a067800e1
:100fb0000f000800c5000000000000000000000055
:100fc0001800780098009000808050004200dd00fa
:100fd0000a0540003a0278001201c30001800800af
:100fe0000300000000000000000000000401f00009
:100ff0000401f000190078006100e10003003a00ec
:10100000190090000000c800310037002101800065
:1010100024018000150180000100e00004003a0076
:101020001101800020fe2f001100b1000b003200e2
:10103000210180000100df000000fb0012ff2f00f3
:101040000200e1004100c80004003a0011018000e4
:101050000101df000201fb000000410024018800c3
:1010600015018800800078000008a3000500320008
:101070004180de000000c8001000b0000000c80081
:10108000030037004180de000000c8000000c800f7
:1010900024018000990290001301c0000100780033
:1010a0000008a300060032000000ea004180de00d4
:1010b0000000c8001000b0000000c80004003700a5
:1010c0000000ea004180de000000c8000000c80007
:1010d0002101800024018000150180000100e00052
:1010e00004003a001101800020fe2f001100b10021
:1010f0000b003200210180000100df000000fb0036
:1011000012ff2f004100c8000200e10004003a0075
:10111000110180000101df000201fb00000041001d
:101120002401880015018800800078000008a300d1
:10113000050032004180de000000c8001000b00051
:101140000000c800030037004180de000000c80036
:101150000000c8002401800015018000c12ade00c3
:101160001381c4004f80c8001281c10001007800c3
:101170000008a300060032000000ea004180de0003
:101180000080c8001000b0000080c80004003700d4
:101190000000ea004180de000080c8000080c80036
:1011a0006f18e100020034004f80c800ef81510049
:1011b0000380c8001b00be002101880010018800c8
:1011c000210180000100e00004003a0011018000cc
:1011d00020fe2f001100b1000b0032002101800021
:1011e0000100df000000fb0012ff2f004100c800db
:1011f0000200e10004003a00110180000101df005b
:101200000201fb0000004100bb0078002b00ca0077
:1012100011018800800078000008a300050032005a
:101220004180de000000c8001000b0000000c800cf
:10123000030037004180de000000c8000000c80045
:101240002401800015018000c12ade001301c500c1
:101250004f00c8001201c200010078000008a3007e
:10126000060032000000ea004180de000000c800f5
:101270001000b0000000c800040037000000ea00c1
:101280004180de000000c8000000c8000000cb0064
:1012900011018000811d78002b00cc00040120008a
:1012a000050020001281c300440188000030cb00fb
:1012b000210180000100e00001003d00848dbe009e
:1012c0004b00b0004800b0000c0578004900b000a9
:1012d0004200f9004400f9004f06be004f05be0071
:1012e0004f04be008f87e9006e1090001000e000f0
:1012f0003000340000002000300f98003e089000bd
:10130000ef0f50002b003c006e119000be089000c3
:10131000400020000008b80000004100c211200079
:1013200000014100f0ff200001002000b20f10007a
:10133000a28f18000c003c006e119000be089000b7
:10134000400020000008b80000004100c215200045
:1013500000014100f0ff20000000e8000100200033
:101360000089be000f0037006e119000be0890008b
:10137000400020000008b80000004100c315200014
:10138000808141006e119000be0890004000200056
:101390000008b80000004100c011b0001002be00fb
:1013a0008489be003e0890000000e800300f9800dd
:1013b000d2ff37006e109000c115200080804000e1
:1013c0006e109000c011b0006e019000c0020700c6
:1013d0006e10900060919100ce0090006e00900021
:1013e000889fbe008a9fbe008c9fbe004400f8000c
:1013f000270e20002702880000047800810478006e
:10140000f4ff27001281c300820078005101880098
:10141000fcff2f006c018800f7a1230003002800c7
:101420001201c30013018800620020000f000800b1
:1014300019000000000000000000000098021100e8
:1014400001003c00020c7800980211001201c0005b
:10145000260180001301c6007b00c8000000cb00fd
:1014600000000000250180000500e00002003400bb
:101470001201c3000000000015018000851c7800e7
:101480003900cc00510188006c0188002422b10091
:101490001201c300130188002800b0004400f900c5
:1014a0004f06be004f05be004f04be006e109000f8
:1014b0006106200080804000025d21004e00900007
:1014c000889fbe008a9fbe008c9fbe004400f8002b
:1014d0004200f8008e1f7800270e200027028800a7
:1014e00000047800d7cc2000263327006766200050
:1014f0004100b0000f0008003100000000000000b3
:10150000000000003802be004122de001381c2004c
:101510004f80c8001281c5007b80c8005401800044
:10152000450180008501720002003a00f4ff2f009f
:10153000f5ff2f00d6a42600c12ade001381c400c7
:101540004f80c8001281c1007e80c80006022000c2
:10155000540180001301c10029018000f6ff2f0013
:1015600006851400260188004100c800140180008f
:101570001101f0000500cd00f65e21001301c4004a
:10158000f65625001201c100d4fb27001281c300ca
:10159000540188000000cb000a00e0000100340084
:1015a0000a00c80024018000920278001203900013
:1015b0000503530006800900841878004200b0003b
:1015c000000000004f0778004200f9004400f900d5
:1015d0004f06be004f05be004f04be006e119000c6
:1015e000ee1090006e10900050309000c0309800c7
:1015f000303198006e10900041030700400f9800b2
:101600000000e0008d0032006e1090004009910053
:10161000d00991006e109000c11120008080400020
:101620006e109000c015b000889fbe008a9fbe005b
:101630008c9fbe004400f8004200f800270e2000f6
:101640002702880000047800810478008203780073
:10165000030378000f000800720000000000000083
:1016600000000000380278002800ca002501800030
:10167000140188001101800020fe2f001100b1002c
:101680000d0032002101800024018000150180003e
:101690000100df000000fb0012ff2f000200e1004c
:1016a0004100c80004003a00110180000101df0080
:1016b0000201fb00000041002401880015018800a0
:1016c000800078000008a300050032004180de00a1
:1016d0000000c8001000b0000000c8000300370080
:1016e0004180de000000c8000000c8002401800026
:1016f0001301c100010078000008a30006003200b9
:101700000000ea004180de000000c8001000b000c8
:101710000000c800040037000000ea004180de003d
:101720000000c8000000c800390278003980ca00f3
:1017300055018000440188004101800020fe2f00f7
:101740001100b1000d0032005101800054018000f1
:10175000450180000100df000000fb0012ff2f00a8
:101760000200e1004180c80004003a00410180000d
:101770000101df000201fb0000004100540188006c
:1017800045018800800078000008a30005003200b1
:101790004180de000080c8001000b0000080c8005a
:1017a000030037004180de000080c8000080c800d0
:1017b000540180001381c200010078000008a300da
:1017c000060032000000ea004180de000080c80010
:1017d0001000b0000080c800040037000000ea00dc
:1017e0004180de000080c8000080c8000000cb00ff
:1017f00011018000011c78002800cc0004012000a9
:10180000050020001281c300440188000030cb0095
:10181000210180000100e00001003d00048cbe00b9
:101820001281c3004800b0004200f9004400f900f2
:101830004f06be004f05be004f04be006e10900064
:101840006106200080804000020820005e009000b9
:10185000889fbe008a9fbe008c9fbe004400f80097
:10186000270e2000270288000004780081047800f9
:101870004111de001200b100b902780002800800b8
:1018800007000000000000000000000018027800bf
:101890001301c0003800cc00180278005312c000b9
:1018a0003800cc004400f9004f06be004f05be00d2
:1018b0004f04be0042002000010820005e0090009e
:1018c000889fbe008a9fbe008c9fbe004400f80027
:1018d000270e200027028800000478000006780008
:1018e0002100b10038007800800178000000e0009d
:1018f00001003d008001ea00010278001400b00000
:101900000180080009000000000000000000000045
:10191000380078000000e00001003d000000ea000f
:101920000300e100010034008001780000000000a5
:101930000300df000000fb000300e00001003a00ac
:10194000000020000000ea00020050008001780042
:10195000000178001200b0001281c3000000ea000c
:1019600015002000550188000280c800048008008e
:101970000500000000000000000000001c00ca007c
:101980000000cb000000c8003c00cc000300780041
:101990004400f9004f06be004f05be004f04be00d4
:1019a000500f98008080eb005e0090007b000700e5
:1019b000ee0890005e0890000081400001082000c1
:1019c0005e009000889fbe008a9fbe008c9fbe0074
:1019d0004400f800270e2000270288000004780049
:1019e0001100b100020078000201ea001200b0000c
:1019f000090020001aff2f000a10e10002003c003d
:101a000019ff2f00090151001281c30015002000a9
:101a1000550188000980c8000280c8000900200024
:101a20006f00e10002003500f900200009005000bd
:101a30000000000000000000018008000600000017
:101a400000000000000000001800ca000000cb00e9
:101a50000900c8000000c8003800cc004400f900ac
:101a60004f06be004f05be004f04be00ee109000b2
:101a70006e1090006600400005052000040820005c
:101a8000a10190001e019000800078005e0090008f
:101a9000889fbe008a9fbe008c9fbe004400f80055
:101aa000270e200027028800000578000104780036
:101ab0008304780084037800850178000383530051
:101ac0000603e90006800800040000000000000092
:101ad000000000001a00ca003800c9003a00cc001b
:101ae00080057800411add008b0542000104780072
:101af0000680080003000000000000000000000055
:101b00003b00ca003800cc0064662600000578005f
:101b100082057800890278001301c0003a00c900ec
:101b20003b00cc00250180001281c3000100280089
:101b3000410188004e00080006000000000000007f
:101b4000000000001301c0000000cb003a00c900f3
:101b50001b00cc00bb0278004400f9004f06be0019
:101b60004f05be004f04be00ee1090001e01900015
:101b7000000520004100dd0062005000020040002e
:101b800010007800a0009800ee10900000002000e7
:101b9000800878000080fa00000006000a00fa00c1
:101ba000000f780011079800000000001e00900050
:101bb000e10f500063003a00023021009e007800df
:101bc00060002000889fbe008a9fbe008c9fbe00e0
:101bd0004400f800070f20002702880007f02f00bc
:101be0000338e10000003200811f78001900200056
:101bf000804cdd001300200002047800800678008d
:101c00008904d100424edd00010578000302e9009d
:101c1000048008001b00000000000000000000001d
:101c20008a0546004218dd000902e9000480080028
:101c30001200000000000000000000004620c30069
:101c40003b025200df35c100080440001381c2008e
:101c5000ab825200264dc5003e85c400bb00cd00be
:101c6000bb80cd003a00ca002a80ca000700c90024
:101c70000580c900ba00cd00ba80cd000000000088
:101c80000a054600020478008301d0008d06e900b1
:101c9000dbff3c0000000000000000004f00780067
:101ca0004400f9004f06be004f05be004f04be00c1
:101cb0009e00780060002000881f78004600f80031
:101cc0005000f800022020003202880002002800a4
:101cd000130020008019dd0002817100820288005b
:101ce0000100780001017800260020004700200054
:101cf0008301e900038008000900000000000000e3
:101d0000000000000110e100040034001102be00d8
:101d100092087800e2307b000489be008780400092
:101d2000121978005000f9004600f9004f047800bd
:101d300002402100010820001e007800d6010700a3
:101d40006100370002402100010820001e007800d9
:101d50001b020700023821009e007800600020006e
:101d6000811f7800801f7800811f7800889fbe0047
:101d70008a9fbe008c9fbe004400f800070f200021
:101d800027028800811f780019002000804cdd00a8
:101d90001300200002047800800678008904d10036
:101da000424edd00010578000302e90004800800ce
:101db0001b00000000000000000000008a05460033
:101dc0004218dd000902e90004800800120000004a
:101dd00000000000000000004620c3003b0252004b
:101de000df35c100080440001381c200ab825200fd
:101df000264dc5003e85c4003b00cd003b80cd0094
:101e00003a00ca002a80ca000700c9000580c9003c
:101e10003a00cd003a80cd00000000000a054600df
:101e2000020478008301d0008d06e900dbff3c004e
:101e30004f0078004400f9004f06be004f05be0079
:101e40004f04be00cf0078004f007800881f780054
:101e50004600f8005000f8000220200032028800fe
:101e600002002800130020008019dd0002817100ab
:101e7000820288000100780001017800260020001d
:101e8000470020008301e9000380080009000000ea
:101e900000000000000000000110e1000400340018
:101ea0001102be0092087800e2307b000489be0077
:101eb00087804000121978005000f9004600f900b0
:101ec0004f0478004f0078000080fa000000060000
:101ed000889fbe008a9fbe008c9fbe004400f80011
:101ee0004200f8001000fa008f0678002d00b100c3
:101ef000270e200027028800000478008104780063
:101f000002057800f0ff2f00f1ff27008096be0049
:101f10000f000800f20000000000000000000000b8
:101f2000b90078003900ca00110188002201800040
:101f30000200e00003003a0020fe2f001100b10073
:101f40000d00320021018000240180001501800075
:101f50000100df000000fb0012ff2f000200e10083
:101f60004100c80004003a00110180000101df00b7
:101f70000201fb00000041002401880015018800d7
:101f80008000ea000008a300050032004180de0066
:101f90000000c8001000b0000000c80003003700b7
:101fa0004180de000000c8000000c8003801780051
:101fb0003880ca0042018800500180000000e00023
:101fc00003003a0020fe2f001200b1000d00320085
:101fd0005201800054018000450180000200df00b2
:101fe0000000fb0012ff2f000200e1004180c8004a
:101ff00004003a00430180000301df000201fb00fe
:102000000000410054018800450188000001ea00f9
:102010001000b0000008a300050032004180de007f
:102020000080c8001000b0000080c8000300370026
:102030004180de000080c8000080c80044018000ac
:1020400055018000849ebe0001067800f0ff230049
:1020500023018000110009000300d900000278006c
:102060001501800026018000c12ade001301c00096
:102070004f00c8001201c1003d0378001d80ca0056
:102080004601880000b0cb00450180005601800069
:10209000c12ade001381c0004f80c8001281c10038
:1020a0006d00b1003d0378002d00ca0016018800c4
:1020b0002d00b100140180004122de0045018000a6
:1020c000c12ade0026018000570180001301c000f4
:1020d0004f00c8004100c8001381c4004180c800ff
:1020e0000000cb001381c2004180c8000000cb007b
:1020f0004e00c8001201c6007e00c800a4012000e6
:102100008c0078000402410001005200f40120001c
:102110000400e1000a00350021018000f10f2000d9
:1021200031018800f1ff2f00210188001101880092
:102130000100e0000c0034001201c3000a00370067
:102140000008a300050032004180de000000c80046
:102150004100c8000000c800030037004180de00d5
:102160000000c8000000c8002401800015018000a4
:102170000501720004003a001201c30004002000af
:102180001500200015018800110180002001800049
:102190000000e00003003a0020fe2f001100b10013
:1021a0000b003200210180000100df000000fb0075
:1021b00012ff2f000200e1004100c80004003a00b5
:1021c000110180000101df000201fb00000041005d
:1021d0002401880015018800800078000008a30011
:1021e000050032004180de000000c8001000b00091
:1021f0000000c800030037004180de000000c80076
:102200000000c800810378001700b100240180009d
:102210001281c30002002800420188001081f000f2
:1022200056018000654d2d001301c40055fc2700a8
:102230001201c00005b32a00850e78001d80ca0077
:102240000000cb004300c800110180002001800085
:102250001201c300f43f2000040060002001880048
:1022600011018800870e78003d80ca007680c80082
:102270000000cb0084682200250180001601800048
:102280004133de001301c1004f00c8001201c0003d
:102290001281c3002008220081092e00500188000d
:1022a000410188000000cb0024018000e58122006c
:1022b0001301c000200180000000e00001003d008b
:1022c0001201c3001281c300600020005001880089
:1022d0000000cb0024018000b5aa20001301c0003b
:1022e0003a00cc000080fa004200f9004400f900f6
:1022f0004f06be004f05be004f04be0000000600a2
:10230000889fbe008a9fbe008c1f780080047800e2
:10231000681b2000000444001880e800000c7800ce
:102320000c0a20008c0f500001003400000ceb0060
:10233000090078003c050200000000000005be0016
:10234000c10d200018804000000040000bb07c0050
:10235000008044001a009800831b200089814100fe
:102360000083eb008083eb000002eb008c0278001e
:1023700013007800cf80de00c000dd0000002000e8
:102380006108b800c000dd000000200013019000cb
:1023900002004000e0804800800f5300818f5b0006
:1023a000010036000003be000482e800e481410021
:1023b000850f5200eeff3a00799091000000e9008d
:1023c000030033000603430087834b00fbff370005
:1023d000860f5500878f5d0024003600601a2000ac
:1023e0000900400089989100010878001000e00081
:1023f0002600340010002000c09499002998910014
:10240000cf80de00c000dd00000020006109b800c0
:10241000c011dd0002002000199891000000410069
:10242000e0804900800f5500818f5d000900360073
:102430004990910011002000810f500005003200ea
:10244000010078004f0678004f05be004f04be0023
:1024500000000600000020004f0678004f05be0077
:102460004f04be0000000600faff3700601a20008b
:1024700009004000900078000100e00003003400f3
:102480000108e9004240a900daff3c000000eb002f
:10249000c0949900d9ff3700889fbe008a9fbe0074
:1024a0008c9fbe004400f8000800fa00270e2000b0
:1024b0002702880000057800800578000204780073
:1024c00081017800c219de001300b1004d00200028
:1024d000010678002c00b1004166dd001a0078008a
:1024e0009a009000011d40000115500088047800fa
:1024f0000a8546008b05460008844600890446008c
:10250000ecff2f008f0678002d00b100038008003b
:102510002400000000000000000000003b007800e4
:102520001a025000ba004000810e78002b0078009b
:102530001a0340002a00100080367e00b80378009d
:10254000d311c6005250c0001d80ca000000cb004d
:10255000ba00cd00d331c0005232c6006de0ca00cf
:102560000000cb00aa00cd00d313c6005212c00059
:102570001d80ca000000cb00bb00cd00d333c000db
:102580000010cb001201c6006de0ca000090cb0025
:102590000000cb00ab00cd004a00b0004b00b10002
:1025a0004800b0004900b1000080fa004400f90082
:1025b0004f06be004f05be004f04be0000000600df
:1025c000889fbe008a9fbe008c9fbe004400f8001a
:1025d0000800fa00270e2000270288000005780076
:1025e000800578000204780081017800c219de00bd
:1025f0001300b1004d002000010678002c00b1004e
:102600004166dd001a0078009a0090000101400048
:102610004191de00021d7800010150004191de0071
:1026200002157800880478000a8546008b0546006c
:102630000884460089044600ecff2f008f067800ce
:102640002d00b100038008002600000000000000fb
:10265000000000003b0078001a0250000402ea006b
:10266000ba004000810698002b0078001a03400051
:102670000603ea002a00100080367e00b8037800c6
:10268000d311c6005210c0001d80ca000000cb004c
:10269000ba00cd00d331c0005272c6006de0ca004e
:1026a0000000cb00aa00cd00d313c6005252c000d8
:1026b0001d80ca000000cb00bb00cd00d333c0009a
:1026c0001201c6000010cb006de0ca000090cb00e4
:1026d0000000cb00ab00cd004a00b0004b00b100c1
:1026e0004800b0004900b1000080fa004400f90041
:1026f0004f06be004f05be004f04be00000006009e
:020000040000fa
:0200000401f009
:04000c00f8ff0000f9
:020000040000fa
:0200000401f009
:040010005dff000090
:020000040000fa
:0200000401f009
:040014007fff00006a
:020000040000fa
:0200000401f009
:04001800cfff000016
:020000040000fa
:0200000401f009
:04001c00dfff000002
:020000040000fa
:10000800c8020000c8020000c8020000c8020000c0
:10001800c8020000c8020000c8020000c8020000b0
:10002800c8020000c8020000c8020000c8020000a0
:10003800c8020000c8020000c8020000c802000090
:10004800c8020000c8020000c8020000c802000080
:10005800c8020000c8020000c8020000c802000070
:10006800c8020000c8020000c8020000c802000060
:10007800c8020000c8020000c8020000c802000050
:10008800ee160000c8020000c8020000c802000006
:10009800c8020000c8020000c8020000c802000030
:1000a800c8020000c8020000c8020000c802000020
:1000b80000170000c8020000c8020000c8020000c3
:1000c800c8020000c8020000c8020000c802000000
:1000d800c8020000c8020000c8020000c8020000f0
:1000e800c8020000c8020000c8020000c8020000e0
:1000f800c8020000c8020000c8020000c8020000d0
:10010800c8020000c8020000c8020000c8020000bf
:10011800c8020000c8020000c8020000c8020000af
:10012800c8020000c8020000c8020000c80200009f
:10013800c8020000c8020000c8020000c80200008f
:10014800c8020000c8020000c8020000c80200007f
:10015800c8020000c8020000c8020000c80200006f
:10016800c8020000c8020000c8020000c80200005f
:10017800c8020000c8020000c8020000c80200004f
:10018800c8020000c8020000c8020000c80200003f
:10019800c8020000c8020000c8020000c80200002f
:1001a800c8020000c8020000c8020000c80200001f
:1001b800c8020000c8020000c8020000c80200000f
:1001c800c8020000c8020000c8020000c8020000ff
:1001d800c8020000c8020000c8020000c8020000ef
:1001e800c8020000c8020000c8020000c8020000df
:1001f800c8020000c8020000c8020000c8020000cf
:10020800c8020000c8020000c8020000c8020000be
:10021800c8020000c8020000c8020000c8020000ae
:10022800c8020000c8020000c8020000c80200009e
:10023800c8020000c8020000c8020000c80200008e
:10024800c8020000c8020000c8020000c80200007e
:0c025800c8020000c8020000c80200003c
:020000040000fa
:102700000e00fa0010079800210798003207980081
:102710004407980055079800630798000080eb0075
:10272000000f78001e01900000b02100710b200006
:1027300010019800210198001e0090004e019000a9
:10274000de0190003200980043009800000037003e
:102750001e0fe8001e007800ec00b800e400400006
:1027600060a22100008040001000be000001be00f9
:102770004e009000de009000800f5100818f5900c4
:10278000f3ff3a001e007800ec01b80060a22100bf
:10279000000041001000be000001be001e009000bd
:1027a000a000900010009000800f5100818f590010
:1027b000e7ff3a001e0090001e0878001e009000ff
:1027c000ee019000530098001e009000ae009000b3
:1027d000010898001e0090003e0190001208980029
:1027e0001e0078000080fa00000006000200fa00d7
:1027f000000f7800ee0007002b0107001e00780094
:102800006f0107001e007800a0d988000108200091
:10281000600020007d0007008000eb00f000200039
:102820007a0007008000eb0090002000770007008e
:10283000410120004000200074000700210020001a
:1028400050002000710007001100200060002000ef
:102850006e00070031042000700020006b000700ac
:102860001e00780010007800ec00b800ea0040007c
:1028700060a2210000804000100078006f406000de
:102880000080fb004201dd001e007800100078008f
:10289000ec00b800ea00400060a221000080400087
:1028a000100078004400de00614060000080fb0002
:1028b00000004000000171001e0078001000780048
:1028c000ec00b800ea00400060a221000080400057
:1028d000100078004500de00614060000080fb00d1
:1028e0008000710080002000480007007101200076
:1028f0000000eb00450007007101200010002000df
:102900004200070091072000200020003f00070040
:1029100091072000300020003c000700110020003b
:1029200090002000390007000080fa000000060037
:102930000000fa0018010700d10007000080fa002b
:10294000000006000200fa00000f78001e00780068
:10295000600090000000e000fcff32009e00780064
:102960000000eb00e00098000080fa000000060084
:102970000200fa00000f78001e007800700090003e
:102980000000e000fcff32000080fa0000000600ba
:102990000200fa00000f78001e007800700090001e
:1029a0000000e000fcff32009e0078000000eb0019
:1029b000f00098000080fa00000006000000fa0015
:1029c00077000700f9000700b10007000000eb00e6
:1029d0000080fa00000006000000fa0017e2a900db
:1029e00017a2a9001762a9001742a9001722a80080
:1029f0001702a900011120004021200001087800e1
:102a000017e2a8000080fa00000006000800fa00a3
:102a100010079800210798001e0090000000400059
:102a2000804078002e0090004880de0000c07000da
:102a3000104798002e0090008040780000c0eb0006
:102a400000cf60001602a80060212000104078002e
:102a5000614060000004e000fbff3a0041032000f9
:102a600020212000010878009021200010407800eb
:102a70000044b2000004e000fbff3a009021200077
:102a80009040780000c8b30000c060000004e0007f
:102a9000090032001642a800602120001040780092
:102aa000644060000004e000fbff3a000080eb009f
:102ab00030079800370037001e4090008080fb00f0
:102ac000202120000108780090212000104078008b
:102ad0000044b2000004e000fbff3a009021200017
:102ae0009040780000c8b30000c060000004e0001f
:102af000090032001642a800602120001040780032
:102b0000644060000004e000fbff3a000080eb003e
:102b1000300798001f0037009e80fb002021200016
:102b20000108780090212000104078000044b20095
:102b30000004e000fbff3a00902120009040780064
:102b400000c8b30000c060000004e00009003200cb
:102b50001642a80060212000104078006440600008
:102b60000004e000fbff3a000080eb003007980013
:102b7000080037001642a8006021200010407800ad
:102b8000644060000004e000fbff3a0010002000f9
:102b9000300798003e0090000080fa000000060018
:102ba0000000fa0017e2a9000080fa000000060009
:102bb0000000fa00faff070087ff07000080fa0014
:102bc000000006000000fa0081e2a9002e8ea90094
:102bd0000ecea9000eeea90000cea90000eea900bd
:102be000618ea90004cea90004eea900658ea8009c
:102bf000208ea800314ea800312ea800300ea9006a
:102c000041a32400006d20000108780091042000f9
:102c1000206d200001087800b1002000006820002d
:102c200001087800017220000028200001087800c7
:102c3000f102200020282000010878003100200047
:102c4000802820000108780031002000c0282000e2
:102c5000010878002788a900e085200090407800ce
:102c600080cfb30000c060006040b300e185200069
:102c7000804878000788a9000080fa00000006005c
:102c80000000fa0081e2a8000080fa0000000600bf
:102c90000000fa0081e2a9002788a9000788a9009e
:102ca0000080fa00000006000000fa00c5ff0700df
:102cb0000080fa00000006000200fa00000f780011
:102cc0008000eb0000b22000010878001e007800b0
:102cd000500090000000e90080007800e0b2200081
:102ce00001087800c103200020b22000010878000c
:102cf0000029200080007800c0b220000108780080
:102d00001e007800000890008000780040b220008b
:102d1000010878008000eb0060b220000108780014
:102d20000308a9002308a8000100220000b3200026
:102d3000010878001e007800500090000000e900b3
:102d400080007800e0b3200001087800c103200073
:102d500020b320000108780080292000800078003e
:102d6000c0b32000010878001e0078001008900011
:102d70008000780040b32000010878008000eb005c
:102d800060b32000010878000488a9002488a80006
:102d90000080fa00000006000000fa0021eba80005
:102da00031eba8000080fa00000006000000fa00e5
:102db00021eba90031eba9000080fa000000060019
:102dc0000200fa00000f7800f8ff07001e007800ec
:102dd000b9ff07000080fa0000000600809fbe00d7
:102de0000000fa000308a900a1d98000100020000b
:102df000e00098000080fa004f00be00004006008e
:102e0000809fbe000000fa000488a900a1d98000bc
:102e100010002000f00098000080fa004f00be0073
:042e20000040060068
:020000040000fa
:102e2400161b000016000000820000000a000000cb
:102e340000000000401f000000a00000000000008f
:102e4400009e1700de180000000000009e1700001e
:102e5400880200008000000050160000a00000005e
:102e6400800000000010000000030000800000004b
:102e7400f0160000640000008000000000dc000088
:102e84000001000080000000261a0000f00000008d
:102e9400820000000080bb000080bb000000000036
:102ea40001000000004019000180bb000000800008
:102eb40001100000001bb7000080bb000000fa00f6
:102ec400002000000080bb0000007d0000008000a6
:102ed400010600000040190001007d0000004000d0
:102ee40002160000001bb70000007d000000770000
:102ef400012600000080bb0000401f00000000000d
:102f0400060300000040190001401f0000000000fb
:102f1400091300000044ac0000401f0000008000c2
:102f2400050b00000066020001401f000000400085
:102f3400081b0000001bb70000401f000000dc005d
:102f4400052300000080bb00000077000100800022
:102f54000007000000401900010077000100c000d4
:102f640000170000001bb7000000770001007d007f
:102f7400002700000044ac000044ac000000000046
:102f840001080000006602000144ac00000080005b
:102f940001180000001bb7000044ac000000100042
:102fa400013800000044ac00008858000100800093
:102fb400000f000000660200018858000100c000f4
:102fc400001f0000001bb7000088580001008800a3
:102fd400003f0000341b00000200000080000000dd
:102fe4002c1b000008000000800000009417000063
:102ff4000a000000820000006b072a00f16b070042
:1030040081e195000e00000054170000400000000c
:103014008200000000782d00785a78008478ae0091
:1030240078d67800fe782400794a79006e79920087
:1030340079b47900d679f80079187a00387a57008b
:103044007a757a00937ab1007acd7a00e97a05002c
:103054007b207b003b7b55007b6f7b00887ba10042
:103064007bb97b00d17be9007b00000000150000e8
:10307400500100008200000023003b0001650300b2
:103084009a06c9000ae20f00cd1571001cb1230095
:103094006d2b830033d03b002f447c004c925400b2
:1030a4004e5c8e0063326a001d70360075657900cf
:1030b4009a7cc4007edc7f00ff7fff007fff7f00df
:1030c400ff7fff007fff7f00ff7fff007fff7f0008
:1030d400ff7fff007fff7f00ff7fff007fff7f00f8
:1030e400ff7fff007fff7f00ff7fff007fff7f00e8
:1030f400ff7fff007fff7f00ff7fff007fff7f00d8
:10310400ff7fff007fff7f00ff7fff007fff7f00c7
:10311400ff7fff007fff7f00ff7fff007fff7f00b7
:10312400ff7fff007fff7f00ff7fff007fff7f00a7
:10313400ff7fff007fff7f00ff7fff007fff7f0097
:10314400ff7fff007fff7f00ff7fff007fdc7f00aa
:10315400c47e9a007c65790036751d0070326a0061
:103164008e634e005c9254007c4c2f0044d03b0094
:1031740083336d002bb12300711ccd0015e20f00c9
:10318400c90a9a00066503003b01230000020000ff
:10319400030004000005000006000700000800000a
:1031a40009000a00000b00000c000d00000e0000d6
:1031b4001000110000130000140016000017000096
:1031c4001a001b00001e00001f0023000024000042
:1031d40029002a00003000003100370000380000c8
:1031e4003f00010000010000010001000001000097
:1031f40001000100000100000100010000010000c5
:103204000100000000aa2a000000aa002a00000011
:10321400aa2a0100000200000100020000000000d0
:103224009919000000561500000049001200000022
:103234004912010000030000001300000002000016
:1032440082000000ff7f000000627f0074f38a00a8
:103254007d07e7007d7ad800da42760004cfe300e8
:1032640070a9c3006e6ae300b8f26200ccae8200bb
:103274005a7ea50034510e009d1d470092955700bb
:103284003c1d8f00fc30be00892825008385f90091
:10329400187682008c0c9e00800000000080740070
:1032a400f39e800007e7760082d8da008385040065
:1032b400cfbe8900a9c31d008fe3b8009295cc004e
:1032c400ae0e9d007ea57e00a50e9d00ccae9200a4
:1032d40095e3b8001d8fa900c3be890004cf830005
:1032e40085d8da0076820700e79e800074f3ff0039
:1032f4007f000000627f8c000c8a7d00f9187d003d
:103304007a2825004276fc0030e37000573c6e00ba
:103314006a1d4700f262340051825a00825a340016
:1033240051f262001d476e006a573c00e370fc00d6
:103334003042760028257d007af918008a7d8c00b9
:103344000c627f000000ff007f74f300627f0700bf
:10335400e78a7d00d8da7d007a04cf004276a9009e
:10336400c3e37000e3b86e006accae00f2627e0084
:10337400a5825a000e9d3400519295001d471d00f0
:103384008f573c00be89fc003083850028257600d9
:1033940082f918009e808c000cff7f000000d90089
:1033a4007fb8f900627f7400f39d7e0038ed8a00d7
:1033b4007d07e7002a7ce600e07d7a00d8da850004
:1033c40078e1d40042760400cfb6730046c9e30026
:1033d40070a9c300ca6d3200be6e6a00e3b8d000a3
:1033e40066c0b300f262cc00aed75e000aaa8200c7
:1033f4005a7ea500f6552900a13451000e9d4000c7
:103404004c3099001d47920095ce410036925700ea
:103414003c1d8f00ba364a008cfc3000be891f0068
:103424002b7b870028258300851a1f00d683f9008b
:1034340018768200c8126300818c0c009e804800bc
:10344400062780000000000080b8f900278074007f
:10345400f39e800038ed63008107e7007682e60082
:10346400e0d68300d8da830085e1d4007b870400aa
:10347400cfbe890046c94a008ca9c3001d8f320003
:10348400be369200e3b8920095c0b3003099cc00e8
:10349400ae0e9d000aaa2900a17ea5007ea52900e2
:1034a400a10aaa000e9dcc00ae309900c0b39200d0
:1034b40095e3b80036923200be1d8f00a9c34a00be
:1034c4008c46c900be890400cf7b8700e1d4830009
:1034d40085d8da00d683e600e076820007e7630049
:1034e4008138ed009e807400f3278000b8f9000055
:0434f40000000000d4
:020000040000fa
:1034f8000000fa00610220006074200001087800d2
:103508004074200010407800f2c3b300824060008d
:1035180040742000014878004074200090407800f2
:1035280000ceb30080c060004074200001487800dd
:103538008000eb0080742000010878003200200031
:1035480081072000a00920003374200081497800f9
:103558008049780082497800120020006104200028
:103568007005200023742000814978008049780084
:1035780082497800307420001040780002c7b300f8
:103588008240600000c3b30080cf5000f9ff3a00ca
:1035980020742000104078000042b2000004e000cf
:1035a800fbff3200a00007000000eb0010d18800ec
:1035b8000000eb0020d1880002c02d00016f21001f
:1035c8000000210089f40700000021005df40700d5
:1035d80000d18800e28d2100e1792100030a200052
:1035e80004f421000500200060b1210042fc07001e
:1035f80060b121007bfc0700cbfc0700000037000e
:1036080060b12100cdfc07000000eb00f0d088007d
:103618000d003700f2d08000f0d08000c200dd003d
:10362800e07921000080400090017800820041008c
:10363800006521000080400003087800f0d0800079
:103648000000e800f0d08800f1d08000f0042000ed
:10365800808f5000efff340020d180000000e00090
:103668000900320002c02d00016f21000000210076
:103678005ef4070001d1800000002100c8f30700b4
:103688000000eb0020d1880050d98000e10f5000e5
:1036980005003a000000eb0050d9880001d18000f5
:1036a80000002100bef3070012d18000016521004f
:1036b80000002100f7f3070060b12100b2fc070009
:1036c8000000eb00f0d0880018003700f3d080002d
:1036d800f0d080008000400000652100008040009c
:1036e80010017800c218dd00e08d21000080400044
:1036f80002087800f3d08000f0d0800080004000fd
:103708000065210000804000100178004218dd00ab
:103718008080e800e08d21000080400002087800e9
:10372800f0d080000000e800f0d08800f1d08000e0
:10373800f0042000808f5000e4ff340049000700a7
:10374800e10f500015003a0040e3200010407800d7
:103758000080fb004200de00614060000004a2001f
:1037680061406000614060004201dd0040e32000ec
:1037780090407800b0cfb30000c0600002407000f5
:1037880041e320008048780010d180000000a200aa
:1037980010d188001000200050d988004c00070084
:1037a800e10f50000b003a0000d180000000e0005b
:1037b8000400340000d180000000e90000d1880036
:1037c800020037000000eb0000d188001000200044
:1037d80050d988005a000700e10f50000c003a0049
:1037e80001d18000b0022000808f500004003c000e
:1037f80000d180000000e80000d1880002003700f6
:10380800c002200000d188001000200050d9880094
:1038180066000700e10f500079ff3a001000200011
:1038280020d1880076ff37000000fa00300ea9008a
:10383800340ea900302ea900342ea900304ea9005c
:10384800344ea90030cea80030eea80011eea80032
:103858003ecea9003eeea9001feea9000080fa00a6
:10386800000006000200fa000000eb00000f7800dc
:1038780020e32000104078000044b2000004e0007b
:103888000c003a0060d980000000e80060d9880088
:1038980061d9800040062000808f500009003a005e
:1038a8000000eb0060d9880010002000000f7800ad
:1038b800040037000000eb0060d988000000eb002e
:1038c800000f78001e0078000080fa000000060053
:1038d8000200fa000000eb00000f780020e320004f
:1038e8009040780000c8b30000c060000004e00009
:1038f8000c003a0070d980000000e80070d98800f8
:1039080071d9800040062000808f500009003a00dd
:103918000000eb0070d9880010002000000f78002c
:10392800040037000000eb0070d988000000eb00ad
:10393800000f78001e0078000080fa0000000600e2
:103948000200fa000000eb00000f780030e32000ce
:10395800104078000042b2000004e0000c003a0079
:1039680080d980000000e80080d9880081d98000d3
:1039780040062000808f500009003a000000eb004c
:1039880080d9880010002000000f7800040037005c
:103998000000eb0080d988000000eb00000f7800e1
:1039a8001e0078000080fa00000006000200fa00fd
:1039b8000000eb00000f780030e120009040780014
:1039c80000c8b30000c060000004e0000c003a002a
:1039d80090d980000000e80090d9880091d9800033
:1039e80040062000808f500009003a000000eb00dc
:1039f80090d9880010002000000f780004003700dc
:103a08000000eb0090d988000000eb00000f780060
:0c3a18001e0078000080fa00000006008c
:00000001FF
