:020000040000fa
:080000000002040000000000f2
:020000040000fa
:100400006ff42000807f24000001880000000000bd
:10041000050007000c000700800202000000000039
:100420000040da000000fe004440a9000000200067
:100430000000e0000300320000002000a00188005e
:100440004440a8000000060080392100010020007f
:100450001600370062004000e080480091018800eb
:100460009001ba0062004000e080480091018800dd
:100470009002ba0062004000e08048000002eb00f9
:100480006028e10005003a008301e900070033001d
:10049000038009000059eb00040037006128e100e7
:1004a000010032000082eb00050007009101880086
:1004b0001001ba000200e000e6ff3a00000005006b
:1004c000910188008002780062004000e0804800ce
:1004d0003559ba008301e900080032002559ba00f5
:1004e0008301e900050032000400e000f4ff32005f
:1004f00015d9ba008301e900f1ff3a0000000600b7
:100500000200fa0090022000303a880044c7bf0081
:10051000f043b20044e7b7004174200091407800f6
:1005200000ceb30000c0600044e7b7000000eb005d
:10053000403a88001200200081072000a009200016
:10054000337420008149780080497800824978001e
:100550001200200061042000700520002374200098
:1005600081497800804978008249780043c7bf00fc
:100570000047b200f04f5000fcff3a0042c7bf00f6
:100580000042b2000004e000fcff32000000eb007b
:10059000807988000000eb00907988006000b80046
:1005a0002079880031798800000020002100200097
:1005b0004079880051798800000020002100200047
:1005c00060798800717988006000b800b07988008f
:1005d000c17988000000eb00a079880001010700c4
:1005e000d079800001802000aa040700e079800013
:1005f00001e820003c010700e07980007501070058
:10060000d0798000dd040700d07980004f06070014
:100610000000eb00000f7800e07980000001eb00a3
:10062000a100200092020700e07980000e0178000e
:10063000510020008e02070000003700d0798000b2
:100640004e0507000000e000fcff3a00d079800072
:100650000208200001c02000020507008079800008
:100660000000e00021003a00907980000000e000e6
:100670001e003a00e0798000690107000000e000f8
:10068000fcff3a002279800033798000e079800015
:100690000408200001d02000d9010700e079800083
:1006a0005f0107000000e000fcff3a0020798000b5
:1006b000317980000008b0000180b0002079880006
:1006c00031798800227980003379800000f027009a
:1006d00011002000800f5100818f59000300340069
:1006e0006000b80020798800317988008079800026
:1006f000e10f50005b003a00a07980000000e000ac
:1007000031003a00d0798000d004070000002000ba
:1007100021002000407988005179880000002000e5
:10072000210020006079880071798800d1e2a90059
:100730000000200021002000b0798800c1798800e5
:1007400014003700e07980000001eb004100200038
:1007500047020700e079800062f32000910020004a
:1007600043020700e07980002d0107000000e0004f
:10077000fcff3a00b0798000c179800002002800b7
:10078000030020000000410081804900b07988000a
:10079000c1798800b2798000c3798000e0ff2f0022
:1007a00071002000800f5100818f5900e5ff340057
:1007b000d1e2a80010002000a0798800d079800044
:1007c0006e04070027003700d1a2a900020820000c
:1007d00001d0200000c020004e070700e079800013
:1007e0000f0107000000e000fcff3a00e079800004
:1007f0000001eb00410020001d020700427980004b
:1008000053798000e07980000408200001d02000a6
:100810003e01070040798000517980000008b00057
:100820000180b000407988005179880042798000c9
:1008300053798000e0ff2f0071002000800f5100ed
:10084000818f590007003400d1a2a8000000eb00fe
:10085000a07988000000eb0080798800100020005b
:100860009079880090798000e10f500022003a00d2
:10087000d1c2a9000000eb00a0798800e0798000d7
:10088000e70007000000e000fcff3a00627980000a
:1008900073798000e07980000408200001d02000f6
:1008a00057010700e0798000dd0007000000e0004c
:1008b000fcff3a0060798000717980000008b00088
:1008c0000180b000607988007179880062798000c9
:1008d000737980004079800051798000800f510049
:1008e000818f590004003500000020002100200005
:1008f00060798800717988000208200001d8200002
:1009000000d0200027070700d07980008a04070064
:100910000000e000fcff3a00d079800002082000cf
:1009200001d82000a504070041000700e10f500096
:100930000e003a00807980000000a20080798800d3
:100940006000b800207988003179880080798000c3
:10095000e10f500004003a000000eb00907988009d
:10096000d1c2a80001003700d1a2a80047000700ab
:10097000e10f500031ff3a00d1c2bf000080fb0000
:100980004600de00614060000004a200614060009b
:10099000614060004601dd00112d2000914078008b
:1009a000f0cbb30000c0600002407000d1e2b7009d
:1009b000907980000000a200907988006000b80063
:1009c000207988003179880090798000e10f50000b
:1009d0001aff3a000000eb0080798800d1a2a8003d
:1009e00016ff37000000fa00cda2a900cde2a90051
:1009f000cdc2a900d1a2a800d1e2a800d1c2a8000e
:100a0000d302a800d322a800e402a900e422a9008e
:100a1000e802a900e822a9000000eb00f0798800b4
:100a20000000eb00007a88000080fa000000060059
:100a30000200fa00d5c2bf00614060000004e0007f
:100a40000b003a00f07980000000e800f07988009f
:100a5000f0798000ec0f500009003a000000eb0034
:100a6000f079880010002000000f780004003700a3
:100a70000000eb00f07988000000eb00000f780028
:100a80001e0078000080fa00000006000200fa0054
:100a9000d5c2bf00624060000004e0000b003a00d5
:100aa000007a80000000e800007a8800007a800068
:100ab000ec0f500009003a000000eb00007a8800bb
:100ac00010002000000f7800040037000000eb0049
:100ad000007a88000000eb00000f78001e0078000c
:100ae0000080fa00000006000800fa0020079800c5
:100af000310798002ca3a800c6a2a900caa2a8008a
:100b00006000b800008fbe00050037000000000044
:100b100010002000010020001e0f40005e974800da
:100b2000f0ff210001002000be0f1000ae8f180062
:100b3000f6ff3400ae009000117a8800117a800030
:100b40003e009000800878004382a9004362a9001b
:100b50004342a9004322a8004302a80042c2a900c0
:100b600042a2a80042e2a90021242000914078007e
:100b700030ceb30000c060008041b30042e2b70055
:100b80002124200091407800c0cfb30000c0600055
:100b90000014a00042e2b70045e2a9002c43a800df
:100ba000c642a900ca42a80041a2a9000000eb0069
:100bb000f00888000000eb00a00888000032200048
:100bc000d00888008760a9009760a8000080fa001c
:100bd000000006000200fa00000f78009540a8000f
:100be00041e2a8009e0078000000eb00a000980001
:100bf0009e0078000000eb00900098009e007800b6
:100c00000000eb00c00098009e0078000000eb00a0
:100c1000b0009800ca42a8000080fa000000060058
:100c20000400fa00000f78001e00780020009000f9
:100c30004500de00610060000004e00003003200b7
:100c400010002000100798002d0037001e007800cb
:100c5000200090004400de00610060000004e0001d
:100c60000300320010002000100798002400370015
:100c7000ca42a90050002000401288001e007800df
:100c8000200090004300de000000a2006100600030
:100c90000004e000f9ff3a001e007800a000900078
:100ca00070ff2f00808060001e00780021009800f7
:100cb0000000eb00401288001e0078002000900029
:100cc0004300de000000a200610060000004e000bc
:100cd000f9ff3a001e007800a000900070ff2f007e
:100ce000808060001e00780021009800ca42a800a1
:100cf0001e0078001000900061006000100798004e
:100d00001e0090000080fa00000006000e00fa00ad
:100d10002007980032079800430798005107980071
:100d2000640798002e00900010007800000f7800f3
:100d3000ee00900000082000808f50000200340078
:100d400000082000600798000000eb0010079800e2
:100d50000b0037001e0090001e0140001e00900096
:100d6000800078005e009000008040001040780015
:100d7000004978001e0090000000e800100798006d
:100d80009e0090006e009000808f5000f1ff3500b3
:100d90002e009000a00090000002200080807000d3
:100da0002e009000210098002e009000ee00900090
:100db000310098002e0090003e019000ce0190007e
:100dc0006200980073009800ae0090000000eb00f5
:100dd000c00098002e0090009000900080ff2f002f
:100de000808060002e00900011009800ca42a90087
:100df000f00a2000401288000080fa00000006007f
:100e00001600fa0020079800320798004307980060
:100e100051079800640798003e009000ce009000b3
:100e200002002000f30f2000000278008102780009
:100e300002007800830078000001620001806200f7
:100e40006102b80074079800050f98007e029000b8
:100e50008e0a9000c020dd00000020006112b80062
:100e600074079800050f98007e0190008e0990008d
:100e700002007000838070004088de00cf80de00ba
:100e8000204798003e009000ce00900002f02f0016
:100e90000300200000027800810278000200780040
:100ea0008300780000016200018062006102b800e6
:100eb000140f9800250f98001e0a9000ae0a9000ab
:100ec000c020dd00000020006112b800140f98005f
:100ed000250f98001e099000ae09900002007000d6
:100ee00083807000c809dd004800de0000807100ca
:100ef000c888de00104798003e00900080407800cf
:100f000000c0eb0000cf6000ee0090000008200061
:100f1000808f500004003400ae00900000082000d4
:100f2000b0009800030037002e0090006e02900081
:100f300034009800de0090002e00900051009800d0
:100f4000ae0090000000eb00c0009800ca42a9006b
:100f500030002000401288002e00900020009000f9
:100f60004300de000000a200610060000004e00019
:100f7000f9ff3a002e009000a000900070ff2f00b3
:100f8000808060002e009000210098002e4090008c
:100f90000000fb00401288002e009000200090000e
:100fa0004300de000000a200610060000004e000d9
:100fb000f9ff3a002e009000a000900070ff2f0073
:100fc000808060002e009000210098001e4090005c
:100fd0000000fb00401288002e00900020009000ce
:100fe0004300de000000a200610060000004e00099
:100ff000f9ff3a002e009000a000900070ff2f0033
:10100000808060002e009000210098001e00fb00f0
:10101000401288002e009000200090004300de0067
:101020000000a200610060000004e000f9ff3a0047
:101030002e009000a000900070ff2f0080806000c4
:101040002e009000210098000000eb004012880064
:101050002e00900020009000800078000140a00049
:101060002e009000210098000080fa000000060089
:101070001000fa0050079800610798007207980066
:101080006e009000e90f500048003a007e0090008a
:1010900040079800ca42a90020052000401288009d
:1010a0005e009000200090004300de000000a200df
:1010b000610060000004e000f9ff3a005e0090006b
:1010c000a000900070ff2f00808060005e00900004
:1010d000210098004e0090000080e8001040780049
:1010e0000000fb00401288005e009000200090008d
:1010f0004300de000000a200610060000004e00088
:10110000f9ff3a005e009000a000900070ff2f00f1
:10111000808060005e009000210098004e009000ea
:101120000000e800104078000000fb00401288003a
:101130005e009000200090004300de000000a2004e
:10114000610060000004e000f9ff3a005e009000da
:10115000a000900070ff2f00808060005e00900073
:10116000210098004e009000104078000000fb0025
:10117000401288005e009000200090004300de00d6
:101180000000a200610060000004e000f9ff3a00e6
:101190005e009000a000900070ff2f008080600033
:1011a0005e00900021009800ca42a8006e009000e6
:1011b000e20f50004b003a007e009000200798009c
:1011c000ca42a90000092000401288005e00900079
:1011d000200090004300de000000a20061006000db
:1011e0000004e000f9ff3a005e009000a0009000cb
:1011f00070ff2f00808060005e009000210098004a
:101200000000eb0030079800120037000000eb00f0
:10121000401288005e009000200090004300de0035
:101220000000a200610060000004e000f9ff3a0045
:101230005e009000a000900070ff2f008080600092
:101240005e009000210098003e0090000000e80041
:10125000300798003e009000e20f5000ebff340092
:101260000000eb0030079800190037000000eb0089
:10127000401288005e009000200090004300de00d5
:101280000000a200610060000004e000f9ff3a00e5
:101290005e009000a000900070ff2f008080600032
:1012a0005e009000210098003e00900080007800d1
:1012b0002e009000808040005e00900010009000a2
:1012c000804878003e0090000000e8003007980059
:1012d0003e009000e30f5000e4ff3400ca42a80033
:1012e000910037006e009000e30f500028003a0094
:1012f0007e00900010079800ca42a900500020000c
:10130000401288005e009000200090004300de0044
:101310000000a200610060000004e000f9ff3a0054
:101320005e009000a000900070ff2f0080806000a1
:101330005e009000210098000000eb004012880041
:101340005e009000200090004300de000000a2003c
:10135000610060000004e000f9ff3a005e009000c8
:10136000a000900070ff2f00808060005e00900061
:10137000210098005e0090001000900080407800ee
:101380001e00900001487800ca42a800660037009d
:101390006e009000ea0f500012003a00ca42a90005
:1013a00000052000401288005e00900020009000a0
:1013b0004300de000000a200610060000004e000c5
:1013c000f9ff3a005e009000a000900070ff2f002f
:1013d000808060005e00900021009800ca42a80052
:1013e000510037006e009000e40f500012003a00e8
:1013f000ca42a90060002000401288005e009000f0
:10140000200090004300de000000a20061006000a8
:101410000004e000f9ff3a005e009000a000900098
:1014200070ff2f00808060005e0090002100980017
:10143000ca42a8003c0037006e009000e50f500043
:1014400025003a007e009000000f7800ca42a900f3
:1014500010002000401288005e00900020009000e4
:101460004300de000000a200610060000004e00014
:10147000f9ff3a005e009000a000900070ff2f007e
:10148000808060005e009000210098001e007800bf
:10149000104078000000fb00401288005e009000c1
:1014a000200090004300de000000a2006100600008
:1014b0000004e000f9ff3a005e009000a0009000f8
:1014c00070ff2f00808060005e0090002100980077
:1014d000ca42a800140037006e009000e10f5000cf
:1014e00011003a00ca42a9000006200040128800fc
:1014f0005e009000200090004300de000000a2008b
:10150000610060000004e000f9ff3a005e00900016
:10151000a000900070ff2f00808060005e009000af
:1015200021009800ca42a8000080fa0000000600ce
:10153000809fbe00829fbe000400fa008540a90083
:10154000107a8000200090004500de0061006000fd
:101550000004e00076003200117a80004012800022
:1015600090009800107a800020009000670f6000c3
:101570001e007800100798001e009000e30f500036
:10158000320032001e009000e30f50000a003c00c1
:101590001e009000e10f50001a0032001e00900063
:1015a000e10f500020003c001e0090000000e00011
:1015b0000b0032008e0037001e009000e50f500037
:1015c000370032001e009000e50f50002f0035005c
:1015d0001e009000e60f50004100320084003700ea
:1015e000107a8000604890000000fb0040128800e4
:1015f000117a8000210090000000e800a00098000f
:101600007b003700107a8000504890000000fb00fb
:1016100040128800117a8000210090000000e8004c
:10162000a000980072003700107a800040489000b7
:101630000000fb0040128800117a80002100900019
:101640000000e800a000980069003700107a8000d0
:1016500090007800137a8000430190000200780027
:1016600000804000104078000000fb00401288001d
:101670000200e800c0019800117a8000210090006b
:101680000000e800a000980059003700ca42a800f6
:101690000000eb00a00888001fe1a80054003700fc
:1016a000107a800090007800137a80004301900047
:1016b0000200780000804000104078000000fb002d
:1016c000401288000200e800c0019800117a8000f2
:1016d000210090000000e900a000980044003700bd
:1016e000ca42a800117a80000000eb00b000980008
:1016f000117a80000000eb00c0009800127a800090
:10170000107a8000a000900080ff2f000080600011
:1017100020019800127a8000107a8000a0009000ca
:10172000f0fd2f000080600020019800300037009d
:10173000107a8000200090004400de00610060000c
:101740000004e00022003200107a8000d0009000f7
:10175000107a80004000900080804000401280009d
:1017600080487800117a8000410090000000e80075
:10177000c0009800107a8000c0009000107a8000ad
:1017800030009000808f500003003d000000eb000f
:101790004012880016003700127a8000107a80000c
:1017a000a0009000f0fe2f00008060002001980053
:1017b000117a80000000eb00b0009800117a8000e0
:1017c0000000eb00c0009800ca42a80008003700e3
:1017d000117a8000107a8000200090000030a00074
:1017e000a0009800117a80004012800090009800bc
:1017f0000080fa004f01be004f00be00004006000e
:10180000809fbe00821f78000000fa008760a90058
:101810001fe1a900107a8000c0009000107a8000bb
:1018200030009000808f50000f003500ca42a900a0
:101830004000200040128800127a8000107a800058
:10184000a000900080ff2f00008060002001980021
:10185000117a8000107a800020009000660040001d
:10186000a000980007003700ca42a900f00a200033
:1018700040128800117a8000210090000000e800ea
:10188000a00098000080fa004f0178004f00be00d1
:10189000004006000600fa00100798002107980093
:1018a00081e2a90007e2a90007a2a9000762a90036
:1018b0000742a9000722a8000702a9000011200082
:1018c00020108800e442a800e462a8000070200014
:1018d00000148800f0002000101488001000200080
:1018e0004014880010002000601488001e00900042
:1018f000207a88001e009000ae0090000108780059
:101900002e00900001102000808040001e009000fa
:10191000110098002e0090000120200080804000df
:101920001e009000210098002e0090000130200041
:10193000808040001e009000310098000000eb0005
:10194000000f7800080037001e00780000004000fb
:10195000800078002e009000808040000000eb00a6
:10196000800878001e0fe800f01f20009e0f100076
:10197000f5ff34000080fa00000006000200fa00c3
:10198000000f78009e0078000000eb00900898009f
:101990001e00780010089000800078000100a00070
:1019a0001e007800110898001e00780010089000b2
:1019b000800078000110a0001e0078001108980037
:1019c0001e00780010007800800078001e0078006b
:1019d000710098001e0078002000900080007800c0
:1019e0001e007800010898009e0078000000eb00bf
:1019f000c00098009e007800f0072000d0009800fa
:101a00009e007800f0072000e00098001e0078009b
:101a10000008900010007800c014880007e2a800b9
:101a20008b80a9009b80a800210c200091407800a9
:101a300080cfb30000c060000024a000c2e0b70067
:101a400081e2a8000080fa00000006000200fa000f
:101a5000000f780081e2a9009b80a9000080fa00b5
:101a6000000006000a00fa002007980031079800dd
:101a7000420798002e009000100890004200de00ff
:101a80000000a200610060000004e00004003200d9
:101a90002e0090009000900011079800030037007e
:101aa0002e0090009000780011079800ce00900062
:101ab00000082000808f5000020034000008200041
:101ac000400798000000eb00000f78000d00370081
:101ad0001e00780000004000800078003e0090006a
:101ae000008140001e007800000040008000780067
:101af0001e0090000080400010007800000978006f
:101b00001e0fe8004e0090009e0f1000f0ff350001
:101b10000400fc002e009000100890008000780067
:101b20000100a0002e009000110898000000fc00a9
:101b30000080fa00000006000400fa00000f7800a0
:101b40001e007800100890000000d1000000a200e4
:101b5000610060000004e000030032000000eb00c0
:101b600010079800020037001000200010079800ae
:101b70001e0090000080fa00000006000400fa0039
:101b8000000f78001e007800100890000000a200ee
:101b9000610060000004e000030032000000eb0080
:101ba000100798000200370010002000100798006e
:101bb0001e0090000080fa00000006000a00fa00f3
:101bc0002007980031079800420798002e009000e7
:101bd000100890004200de000000a20061006000da
:101be0000004e000040032002e009000b0009000dd
:101bf00011079800030037002e009000a00090000d
:101c000011079800ce00900000082000808f50003f
:101c10000200340000082000400798002e009000c9
:101c2000ce009000610098000000eb00000f7800eb
:101c30000d0037001e007800000040008000780092
:101c40001e009000008140001e007800000040004f
:101c5000800078003e009000008040001000780076
:101c6000000978001e0fe8004e0090009e0f100043
:101c7000f0ff35000400fc002e00900010089000da
:101c8000800078000110a0002e009000110898003c
:101c90000000fc000080fa00000006000a00fa00c4
:101ca0001007980021079800320798003e00900026
:101cb00010007800000f78001e4090006140600026
:101cc000104798002e009000000040002007980068
:101cd0001e4090008080fb002e00900001007000ec
:101ce000200798000602a80006c2bf0061406000fd
:101cf0000004e000fcff3a004003200010108800c0
:101d000009c2bf000044b2000004e000fcff3a003a
:101d100009c2bf0001c8b300014060000004e00038
:101d2000080032000642a80006c2bf0064406000fe
:101d30000004e000fcff3a000080eb004007980040
:101d40002e0037002e0090001010880009c2bf003e
:101d50000044b2000004e000fcff3a0009c2bf00ea
:101d600001c8b300014060000004e0000800320038
:101d70000642a80006c2bf00644060000004e00004
:101d8000fcff3a000080eb00400798001b00370082
:101d90001e4078000080fb001010880009c2bf00c0
:101da0000044b2000004e000fcff3a0009c2bf009a
:101db00001c8b300014060000004e00008003200e8
:101dc0000642a80006c2bf00644060000004e000b4
:101dd000fcff3a000080eb00400798000700370046
:101de0000642a80006c2bf00644060000004e00094
:101df000fcff3a0010002000400798004e009000c1
:101e00000080fa0000000600809fbe00821f78005c
:101e10000000fa008b80a900207a8000f00090007a
:101e2000207a800040009000000040008080400048
:101e30008014800080087800207a8000800890005c
:101e4000207a8000400090000000400000804000a8
:101e500010007800c0148800217a800041009000b2
:101e60000000e800c0009800207a8000c0009000c8
:101e7000207a800050009000808f50002f003a00a0
:101e8000217a8000207a8000100890000020a200b3
:101e900090089800207a8000100890004200de0030
:101ea000610060000004e00009003200217a800037
:101eb000207a800010009000f0009800217a8000c5
:101ec000207a8000300090008008980008003700d9
:101ed000217a8000207a800010007800f0009800bd
:101ee000217a8000207a80002000900080089800ed
:101ef000217a80000000eb00c0009800217a800069
:101f0000207a800060009000d0009800227a800043
:101f1000207a800090089000e0ff2f000080600091
:101f200010099800227a8000207a800090089000a2
:101f3000d0ff2f0000806000100998000080fa0098
:101f40004f0178004f00be00004006000600fa0076
:101f50002007980010002000100798000e81e8006c
:101f60008000eb002e0090004cff0700000f78006f
:101f70000080eb009e0f100001003a00ffff3700c9
:101f8000f0062000100798000e81e80011002000e4
:101f90002e00900041ff07000080eb009e0f100014
:101fa00001003a00ffff37005001200010079800a1
:101fb0000e81e800210020002e00900037ff07006e
:101fc0000080eb009e0f100001003a00ffff370079
:101fd00090082000100798000e81e80031002000d2
:101fe0002e0090002dff07000080eb009e0f1000d8
:101ff00001003a00ffff3700800120001007980021
:102000000e81e800410020002e00900023ff070011
:102010000080eb009e0f100001003a00ffff370028
:10202000901a2000100798000e81e800610020003f
:102030002e00900019ff07000080eb009e0f10009b
:1020400001003a00ffff3700a000200010079800b1
:102050000e81e800710020002e0090000fff0700a5
:102060000080eb009e0f100001003a00ffff3700d8
:1020700040002000100798000e81e8008100200039
:102080002e00900005ff07000080eb009e0f10005f
:1020900001003a00ffff3700801020001007980071
:1020a0000e81e800e10020002e009000fbfe0700fa
:1020b0000080eb009e0f100001003a00ffff370088
:1020c00000042000100798000e81e800b1012000f4
:1020d0002e009000f1fe07000080eb009e0f100024
:1020e00001003a00ffff3700500020001007980061
:1020f0000e81e800c10120002e009000e7fe0700dd
:102100000080eb009e0f100001003a00ffff370037
:10211000f0032000100798000e81e800d101200094
:102120002e009000ddfe07000080eb009e0f1000e7
:1021300001003a00ffff3700d00720001007980089
:102140000e81e800e10120002e009000d3fe070080
:102150000080eb009e0f100001003a00ffff3700e7
:1021600000102000100798000e81e800e101200017
:102170002e009000c9fe07000080eb009e0f1000ab
:1021800001003a00ffff370080012000100798008f
:102190000e81e800410220002e009000bffe0700e3
:1021a0000080eb009e0f100001003a00ffff370097
:1021b000c0002000100798000e81e80051022000a6
:1021c0002e009000b5fe07000080eb009e0f10006f
:1021d00001003a00ffff3700300920001007980087
:1021e0000e81e800610220002e009000abfe070087
:1021f0000080eb009e0f100001003a00ffff370047
:10220000900e2000100798000e81e8007102200057
:102210002e009000a1fe07000080eb009e0f100032
:1022200001003a00ffff370040002000100798002f
:102230000e81e800c10220002e00900097fe0700ea
:102240000080eb009e0f100001003a00ffff3700f6
:102250000000eb00100798000e81e800f10220005a
:102260002e0090008dfe07000080eb009e0f1000f6
:1022700001003a00ffff370010002000100798000f
:102280000e81e800810320002e00900083fe0700ed
:102290000080eb009e0f100001003a00ffff3700a6
:1022a0000080fa00000006000600fa0020079800ef
:1022b00010002000100798000e81e8008000eb005d
:1022c0002e00900075fe0700000f78000080eb00e4
:1022d0009e0f100001003a00ffff3700f0062000bb
:1022e000100798000e81e800110020002e009000d9
:1022f0006afe07000080eb009e0f100001003a000c
:10230000ffff370050012000100798000e81e80001
:10231000210020002e00900060fe07000080eb00ee
:102320009e0f100001003a00ffff370090082000c8
:10233000100798000e81e800310020002e00900068
:1023400056fe07000080eb009e0f100001003a00cf
:10235000ffff370080012000100798000e81e80081
:10236000410020002e0090004cfe07000080eb0092
:102370009e0f100001003a00ffff3700901620006a
:10238000100798000e81e800610020002e009000e8
:1023900042fe07000080eb009e0f100001003a0093
:1023a000ffff370060002000100798000e81e80052
:1023b000710020002e00900038fe07000080eb0026
:1023c0009e0f100001003a00ffff37004000200080
:1023d000100798000e81e800810020002e00900078
:1023e0002efe07000080eb009e0f100001003a0057
:1023f000ffff370080012000100798000e81e800e1
:10240000410220002e00900024fe07000080eb0017
:102410009e0f100001003a00ffff3700c0002000af
:10242000100798000e81e800510220002e00900055
:102430001afe07000080eb009e0f100001003a001a
:10244000ffff370030092000100798000e81e800d8
:10245000610220002e00900010fe07000080eb00bb
:102460009e0f100001003a00ffff3700900e200081
:10247000100798000e81e800710220002e009000e5
:1024800006fe07000080eb009e0f100001003a00de
:10249000ffff370040002000100798000e81e80081
:1024a000c10220002e009000fcfd07000080eb0020
:1024b0009e0f100001003a00ffff37000000eb0004
:1024c000100798000e81e800f10220002e00900015
:1024d000f2fd07000080eb009e0f100001003a00a3
:1024e000ffff370010002000100798000e81e80061
:1024f000810320002e009000e8fd07000080eb0023
:102500009e0f100001003a00ffff37000080fa0024
:102510000000060080027800010378008203780042
:102520000700e0001e00340035007800030028009a
:1025300083006000c808de0000f0a7000000ea0089
:10254000b3f727000300e100010039000300780021
:1025500043082000030040000081cf000b00310041
:10256000930020000281510001003b000001eb00bc
:10257000e30141000302de00f300200003026200d9
:102580004411dd0002027200010272000480ea00c0
:10259000f00fb200005b78008703e900e2ff3a0029
:1025a00000000600800278000103780082037800b2
:1025b0000700e00015003400354078000080ea0094
:1025c000030820008300600003072000030160006f
:1025d0004411de000281e800f300200003026000e5
:1025e000700272000402d0000402e8000222dd0042
:1025f00043082000030252000170a7000402ea0011
:10260000041b78008703e900ebff3a000000060096
:102610008002780001037800820378000700e00060
:1026200023003400350078000000e00002003a008a
:10263000500520001b0037000300280083006000c5
:10264000c808de0000f0a7000000ea00f3ff270042
:102650000300e10001003900030078000081cf0091
:10266000060031006910e10004003d0093002000e5
:1026700002815100e3014100020037000001eb003c
:10268000430020000302de00f3002000030262008a
:102690004411dd000202720001027200530d20009d
:1026a00003406a00005b78008703e900ddff3a0021
:1026b00000000600800278000103780082037800a1
:1026c0000700e000190034000000eb0035407800fe
:1026d000530d200000c06900030820008300600043
:1026e00003072000030160004411de006f02600058
:1026f0004422dd00680042000200e00002003200d7
:1027000003102000030040006110e10002003400cb
:102710000201e9000200dd000170a7000000ea00ec
:10272000001b78008703e900e7ff3a00000006007d
:020000040000fa
:0200000401f009
:04000800ffff0000f6
:020000040000fa
:0200000401f009
:04000c00f8ff0000f9
:020000040000fa
:0200000401f009
:040010007bff000072
:020000040000fa
:0200000401f009
:040014007fff00006a
:020000040000fa
:10000800bc130000bc130000bc130000bc130000ac
:10001800bc130000bc130000bc130000bc1300009c
:10002800bc130000bc130000bc130000bc1300008c
:10003800bc130000bc130000bc130000bc1300007c
:10004800bc130000bc130000980a0000bc13000099
:10005800bc130000bc130000bc130000bc1300005c
:10006800bc130000bc130000bc130000bc1300004c
:10007800bc130000bc130000bc130000bc1300003c
:10008800bc130000bc130000bc130000000c0000ef
:10009800bc130000bc130000bc130000bc1300001c
:1000a800bc130000bc130000bc130000bc1300000c
:1000b800bc130000bc130000bc130000bc130000fc
:1000c800bc130000bc130000bc130000bc130000ec
:1000d800bc130000bc130000bc130000bc130000dc
:1000e800bc130000bc130000bc130000bc130000cc
:1000f800bc130000bc130000bc130000bc130000bc
:10010800bc130000bc130000bc130000bc130000ab
:10011800040f0000bc130000bc130000bc13000057
:10012800bc130000bc130000bc130000bc1300008b
:10013800bc130000bc130000bc130000bc1300007b
:10014800bc130000bc130000bc130000bc1300006b
:10015800bc130000bc130000bc130000bc1300005b
:10016800bc130000bc130000bc130000bc1300004b
:10017800bc130000bc130000bc130000bc1300003b
:10018800bc130000bc130000bc130000bc1300002b
:10019800bc130000bc130000bc130000bc1300001b
:1001a800bc130000bc130000bc130000bc1300000b
:1001b800bc130000bc130000bc130000bc130000fb
:1001c800bc130000bc130000bc130000bc130000eb
:1001d800bc130000bc130000bc130000bc130000db
:1001e800bc130000bc130000bc130000bc130000cb
:0801f800bc130000bc13000061
:020000040000fa
:10020800bc130000bc130000bc130000bc130000aa
:10021800bc130000bc130000bc130000bc1300009a
:10022800bc130000bc130000bc130000bc1300008a
:10023800bc130000bc130000bc130000bc1300007a
:10024800bc130000bc130000980a0000bc13000097
:10025800bc130000bc130000bc130000bc1300005a
:10026800bc130000bc130000bc130000bc1300004a
:10027800bc130000bc130000bc130000bc1300003a
:10028800bc130000bc130000bc130000000c0000ed
:10029800bc130000bc130000bc130000bc1300001a
:1002a800bc130000bc130000bc130000bc1300000a
:1002b800bc130000bc130000bc130000bc130000fa
:1002c800bc130000bc130000bc130000bc130000ea
:1002d800bc130000bc130000bc130000bc130000da
:1002e800bc130000bc130000bc130000bc130000ca
:1002f800bc130000bc130000bc130000bc130000ba
:10030800bc130000bc130000bc130000bc130000a9
:10031800040f0000bc130000bc130000bc13000055
:10032800bc130000bc130000bc130000bc13000089
:10033800bc130000bc130000bc130000bc13000079
:10034800bc130000bc130000bc130000bc13000069
:10035800bc130000bc130000bc130000bc13000059
:10036800bc130000bc130000bc130000bc13000049
:10037800bc130000bc130000bc130000bc13000039
:10038800bc130000bc130000bc130000bc13000029
:10039800bc130000bc130000bc130000bc13000019
:1003a800bc130000bc130000bc130000bc13000009
:1003b800bc130000bc130000bc130000bc130000f9
:1003c800bc130000bc130000bc130000bc130000e9
:1003d800bc130000bc130000bc130000bc130000d9
:1003e800bc130000bc130000bc130000bc130000c9
:0803f800bc130000bc1300005f
:020000040000fa
:102730003a0f00000400000002000000000f140027
:102740000f000000000800003a0700000000000031
:102750003e0f00000400000000000000420f0000d7
:102760000200000000000000440f00000200000012
:08277000000000000000000061
:020000040000fa
:042778000000fe005f
:00000001FF
